{
	"voting.sol": {
		"BuletinVot": {
			"abi": [
				{
					"inputs": [],
					"stateMutability": "nonpayable",
					"type": "constructor"
				},
				{
					"inputs": [
						{
							"internalType": "bytes32",
							"name": "numeAlegator",
							"type": "bytes32"
						}
					],
					"name": "addCandidate",
					"outputs": [],
					"stateMutability": "nonpayable",
					"type": "function"
				},
				{
					"inputs": [],
					"name": "admin",
					"outputs": [
						{
							"internalType": "address",
							"name": "",
							"type": "address"
						}
					],
					"stateMutability": "view",
					"type": "function"
				},
				{
					"inputs": [],
					"name": "castigatorAlegeri",
					"outputs": [
						{
							"internalType": "uint256",
							"name": "candidatCastigator_",
							"type": "uint256"
						}
					],
					"stateMutability": "view",
					"type": "function"
				},
				{
					"inputs": [
						{
							"internalType": "address",
							"name": "votant",
							"type": "address"
						}
					],
					"name": "dreptVot",
					"outputs": [],
					"stateMutability": "nonpayable",
					"type": "function"
				},
				{
					"inputs": [],
					"name": "getPropuneri",
					"outputs": [
						{
							"internalType": "bytes32[]",
							"name": "",
							"type": "bytes32[]"
						}
					],
					"stateMutability": "view",
					"type": "function"
				},
				{
					"inputs": [],
					"name": "numeleCastigatorului",
					"outputs": [
						{
							"internalType": "bytes32",
							"name": "numeleCastigatorului_",
							"type": "bytes32"
						}
					],
					"stateMutability": "view",
					"type": "function"
				},
				{
					"inputs": [
						{
							"internalType": "uint256",
							"name": "",
							"type": "uint256"
						}
					],
					"name": "propuneri",
					"outputs": [
						{
							"internalType": "bytes32",
							"name": "nume",
							"type": "bytes32"
						},
						{
							"internalType": "uint256",
							"name": "numarVoturi",
							"type": "uint256"
						}
					],
					"stateMutability": "view",
					"type": "function"
				},
				{
					"inputs": [
						{
							"internalType": "address",
							"name": "_admin",
							"type": "address"
						}
					],
					"name": "setAdmin",
					"outputs": [],
					"stateMutability": "nonpayable",
					"type": "function"
				},
				{
					"inputs": [
						{
							"internalType": "uint256",
							"name": "propunereVot",
							"type": "uint256"
						}
					],
					"name": "vot",
					"outputs": [],
					"stateMutability": "nonpayable",
					"type": "function"
				},
				{
					"inputs": [
						{
							"internalType": "address",
							"name": "",
							"type": "address"
						}
					],
					"name": "votanti",
					"outputs": [
						{
							"internalType": "uint256",
							"name": "vot",
							"type": "uint256"
						},
						{
							"internalType": "bool",
							"name": "votare",
							"type": "bool"
						},
						{
							"internalType": "uint256",
							"name": "urmarireVot",
							"type": "uint256"
						}
					],
					"stateMutability": "view",
					"type": "function"
				}
			],
			"devdoc": {
				"kind": "dev",
				"methods": {},
				"version": 1
			},
			"evm": {
				"assembly": "    /* \"voting.sol\":35:3568  contract BuletinVot {... */\n  mstore(0x40, 0x80)\n    /* \"voting.sol\":401:606  constructor() {... */\n  callvalue\n  dup1\n  iszero\n  tag_1\n  jumpi\n  0x00\n  dup1\n  revert\ntag_1:\n  pop\n    /* \"voting.sol\":35:3568  contract BuletinVot {... */\n  dataSize(sub_0)\n  dup1\n  dataOffset(sub_0)\n  0x00\n  codecopy\n  0x00\n  return\nstop\n\nsub_0: assembly {\n        /* \"voting.sol\":35:3568  contract BuletinVot {... */\n      mstore(0x40, 0x80)\n      callvalue\n      dup1\n      iszero\n      tag_1\n      jumpi\n      0x00\n      dup1\n      revert\n    tag_1:\n      pop\n      jumpi(tag_2, lt(calldatasize, 0x04))\n      shr(0xe0, calldataload(0x00))\n      dup1\n      0xb18e2cbb\n      gt\n      tag_13\n      jumpi\n      dup1\n      0xb18e2cbb\n      eq\n      tag_8\n      jumpi\n      dup1\n      0xe6f4a7c8\n      eq\n      tag_9\n      jumpi\n      dup1\n      0xf1c78b49\n      eq\n      tag_10\n      jumpi\n      dup1\n      0xf211663a\n      eq\n      tag_11\n      jumpi\n      dup1\n      0xf851a440\n      eq\n      tag_12\n      jumpi\n      jump(tag_2)\n    tag_13:\n      dup1\n      0x0e1514b2\n      eq\n      tag_3\n      jumpi\n      dup1\n      0x230d6ed8\n      eq\n      tag_4\n      jumpi\n      dup1\n      0x3b2f6065\n      eq\n      tag_5\n      jumpi\n      dup1\n      0x545f5357\n      eq\n      tag_6\n      jumpi\n      dup1\n      0x704b6c02\n      eq\n      tag_7\n      jumpi\n    tag_2:\n      0x00\n      dup1\n      revert\n        /* \"voting.sol\":3371:3565  function numeleCastigatorului()... */\n    tag_3:\n      tag_14\n      tag_15\n      jump\t// in\n    tag_14:\n      mload(0x40)\n      tag_16\n      swap2\n      swap1\n      tag_17\n      jump\t// in\n    tag_16:\n      mload(0x40)\n      dup1\n      swap2\n      sub\n      swap1\n      return\n        /* \"voting.sol\":1647:1872  function addCandidate(bytes32 numeAlegator) public accesAdmin {... */\n    tag_4:\n      tag_18\n      0x04\n      dup1\n      calldatasize\n      sub\n      dup2\n      add\n      swap1\n      tag_19\n      swap2\n      swap1\n      tag_20\n      jump\t// in\n    tag_19:\n      tag_21\n      jump\t// in\n    tag_18:\n      stop\n        /* \"voting.sol\":322:363  mapping(address => Votant) public votanti */\n    tag_5:\n      tag_22\n      0x04\n      dup1\n      calldatasize\n      sub\n      dup2\n      add\n      swap1\n      tag_23\n      swap2\n      swap1\n      tag_24\n      jump\t// in\n    tag_23:\n      tag_25\n      jump\t// in\n    tag_22:\n      mload(0x40)\n      tag_26\n      swap4\n      swap3\n      swap2\n      swap1\n      tag_27\n      jump\t// in\n    tag_26:\n      mload(0x40)\n      dup1\n      swap2\n      sub\n      swap1\n      return\n        /* \"voting.sol\":1880:2182  function dreptVot(address votant) public {... */\n    tag_6:\n      tag_28\n      0x04\n      dup1\n      calldatasize\n      sub\n      dup2\n      add\n      swap1\n      tag_29\n      swap2\n      swap1\n      tag_24\n      jump\t// in\n    tag_29:\n      tag_30\n      jump\t// in\n    tag_28:\n      stop\n        /* \"voting.sol\":914:1265  function setAdmin(address _admin) public {... */\n    tag_7:\n      tag_31\n      0x04\n      dup1\n      calldatasize\n      sub\n      dup2\n      add\n      swap1\n      tag_32\n      swap2\n      swap1\n      tag_24\n      jump\t// in\n    tag_32:\n      tag_33\n      jump\t// in\n    tag_31:\n      stop\n        /* \"voting.sol\":2190:2939  function vot(uint propunereVot) public {... */\n    tag_8:\n      tag_34\n      0x04\n      dup1\n      calldatasize\n      sub\n      dup2\n      add\n      swap1\n      tag_35\n      swap2\n      swap1\n      tag_36\n      jump\t// in\n    tag_35:\n      tag_37\n      jump\t// in\n    tag_34:\n      stop\n        /* \"voting.sol\":2947:3363  function castigatorAlegeri()... */\n    tag_9:\n      tag_38\n      tag_39\n      jump\t// in\n    tag_38:\n      mload(0x40)\n      tag_40\n      swap2\n      swap1\n      tag_41\n      jump\t// in\n    tag_40:\n      mload(0x40)\n      dup1\n      swap2\n      sub\n      swap1\n      return\n        /* \"voting.sol\":282:313  PropunereVot[] public propuneri */\n    tag_10:\n      tag_42\n      0x04\n      dup1\n      calldatasize\n      sub\n      dup2\n      add\n      swap1\n      tag_43\n      swap2\n      swap1\n      tag_36\n      jump\t// in\n    tag_43:\n      tag_44\n      jump\t// in\n    tag_42:\n      mload(0x40)\n      tag_45\n      swap3\n      swap2\n      swap1\n      tag_46\n      jump\t// in\n    tag_45:\n      mload(0x40)\n      dup1\n      swap2\n      sub\n      swap1\n      return\n        /* \"voting.sol\":610:908  function getPropuneri() public view returns (bytes32[] memory) {... */\n    tag_11:\n      tag_47\n      tag_48\n      jump\t// in\n    tag_47:\n      mload(0x40)\n      tag_49\n      swap2\n      swap1\n      tag_50\n      jump\t// in\n    tag_49:\n      mload(0x40)\n      dup1\n      swap2\n      sub\n      swap1\n      return\n        /* \"voting.sol\":372:392  address public admin */\n    tag_12:\n      tag_51\n      tag_52\n      jump\t// in\n    tag_51:\n      mload(0x40)\n      tag_53\n      swap2\n      swap1\n      tag_54\n      jump\t// in\n    tag_53:\n      mload(0x40)\n      dup1\n      swap2\n      sub\n      swap1\n      return\n        /* \"voting.sol\":3371:3565  function numeleCastigatorului()... */\n    tag_15:\n        /* \"voting.sol\":3451:3480  bytes32 numeleCastigatorului_ */\n      0x00\n        /* \"voting.sol\":3522:3531  propuneri */\n      dup1\n        /* \"voting.sol\":3532:3551  castigatorAlegeri() */\n      tag_56\n        /* \"voting.sol\":3532:3549  castigatorAlegeri */\n      tag_39\n        /* \"voting.sol\":3532:3551  castigatorAlegeri() */\n      jump\t// in\n    tag_56:\n        /* \"voting.sol\":3522:3552  propuneri[castigatorAlegeri()] */\n      dup2\n      sload\n      dup2\n      lt\n      tag_57\n      jumpi\n      tag_58\n      tag_59\n      jump\t// in\n    tag_58:\n    tag_57:\n      swap1\n      0x00\n      mstore\n      keccak256(0x00, 0x20)\n      swap1\n      0x02\n      mul\n      add\n        /* \"voting.sol\":3522:3557  propuneri[castigatorAlegeri()].nume */\n      0x00\n      add\n      sload\n        /* \"voting.sol\":3498:3557  numeleCastigatorului_ = propuneri[castigatorAlegeri()].nume */\n      swap1\n      pop\n        /* \"voting.sol\":3371:3565  function numeleCastigatorului()... */\n      swap1\n      jump\t// out\n        /* \"voting.sol\":1647:1872  function addCandidate(bytes32 numeAlegator) public accesAdmin {... */\n    tag_21:\n        /* \"voting.sol\":1342:1347  admin */\n      0x02\n      0x00\n      swap1\n      sload\n      swap1\n      0x0100\n      exp\n      swap1\n      div\n      0xffffffffffffffffffffffffffffffffffffffff\n      and\n        /* \"voting.sol\":1328:1347  msg.sender == admin */\n      0xffffffffffffffffffffffffffffffffffffffff\n      and\n        /* \"voting.sol\":1328:1338  msg.sender */\n      caller\n        /* \"voting.sol\":1328:1347  msg.sender == admin */\n      0xffffffffffffffffffffffffffffffffffffffff\n      and\n      eq\n        /* \"voting.sol\":1306:1415  require(... */\n      tag_62\n      jumpi\n      mload(0x40)\n      0x08c379a000000000000000000000000000000000000000000000000000000000\n      dup2\n      mstore\n      0x04\n      add\n      tag_63\n      swap1\n      tag_64\n      jump\t// in\n    tag_63:\n      mload(0x40)\n      dup1\n      swap2\n      sub\n      swap1\n      revert\n    tag_62:\n        /* \"voting.sol\":1742:1747  admin */\n      0x02\n      0x00\n      swap1\n      sload\n      swap1\n      0x0100\n      exp\n      swap1\n      div\n      0xffffffffffffffffffffffffffffffffffffffff\n      and\n        /* \"voting.sol\":1728:1747  msg.sender == admin */\n      0xffffffffffffffffffffffffffffffffffffffff\n      and\n        /* \"voting.sol\":1728:1738  msg.sender */\n      caller\n        /* \"voting.sol\":1728:1747  msg.sender == admin */\n      0xffffffffffffffffffffffffffffffffffffffff\n      and\n      eq\n        /* \"voting.sol\":1720:1787  require(msg.sender == admin, \"Doar adminul poate adauga candidati\") */\n      tag_66\n      jumpi\n      mload(0x40)\n      0x08c379a000000000000000000000000000000000000000000000000000000000\n      dup2\n      mstore\n      0x04\n      add\n      tag_67\n      swap1\n      tag_68\n      jump\t// in\n    tag_67:\n      mload(0x40)\n      dup1\n      swap2\n      sub\n      swap1\n      revert\n    tag_66:\n        /* \"voting.sol\":1798:1807  propuneri */\n      0x00\n        /* \"voting.sol\":1813:1863  PropunereVot({nume: numeAlegator, numarVoturi: 0}) */\n      mload(0x40)\n      dup1\n      0x40\n      add\n      0x40\n      mstore\n      dup1\n        /* \"voting.sol\":1833:1845  numeAlegator */\n      dup4\n        /* \"voting.sol\":1813:1863  PropunereVot({nume: numeAlegator, numarVoturi: 0}) */\n      dup2\n      mstore\n      0x20\n      add\n        /* \"voting.sol\":1860:1861  0 */\n      0x00\n        /* \"voting.sol\":1813:1863  PropunereVot({nume: numeAlegator, numarVoturi: 0}) */\n      dup2\n      mstore\n      pop\n        /* \"voting.sol\":1798:1864  propuneri.push(PropunereVot({nume: numeAlegator, numarVoturi: 0})) */\n      swap1\n      dup1\n      0x01\n      dup2\n      sload\n      add\n      dup1\n      dup3\n      sstore\n      dup1\n      swap2\n      pop\n      pop\n      0x01\n      swap1\n      sub\n      swap1\n      0x00\n      mstore\n      keccak256(0x00, 0x20)\n      swap1\n      0x02\n      mul\n      add\n      0x00\n      swap1\n      swap2\n      swap1\n      swap2\n      swap1\n      swap2\n      pop\n      0x00\n      dup3\n      add\n      mload\n      dup2\n      0x00\n      add\n      sstore\n      0x20\n      dup3\n      add\n      mload\n      dup2\n      0x01\n      add\n      sstore\n      pop\n      pop\n        /* \"voting.sol\":1647:1872  function addCandidate(bytes32 numeAlegator) public accesAdmin {... */\n      pop\n      jump\t// out\n        /* \"voting.sol\":322:363  mapping(address => Votant) public votanti */\n    tag_25:\n      mstore(0x20, 0x01)\n      dup1\n      0x00\n      mstore\n      keccak256(0x00, 0x40)\n      0x00\n      swap2\n      pop\n      swap1\n      pop\n      dup1\n      0x00\n      add\n      sload\n      swap1\n      dup1\n      0x01\n      add\n      0x00\n      swap1\n      sload\n      swap1\n      0x0100\n      exp\n      swap1\n      div\n      0xff\n      and\n      swap1\n      dup1\n      0x02\n      add\n      sload\n      swap1\n      pop\n      dup4\n      jump\t// out\n        /* \"voting.sol\":1880:2182  function dreptVot(address votant) public {... */\n    tag_30:\n        /* \"voting.sol\":1954:1959  admin */\n      0x02\n      0x00\n      swap1\n      sload\n      swap1\n      0x0100\n      exp\n      swap1\n      div\n      0xffffffffffffffffffffffffffffffffffffffff\n      and\n        /* \"voting.sol\":1940:1959  msg.sender == admin */\n      0xffffffffffffffffffffffffffffffffffffffff\n      and\n        /* \"voting.sol\":1940:1950  msg.sender */\n      caller\n        /* \"voting.sol\":1940:1959  msg.sender == admin */\n      0xffffffffffffffffffffffffffffffffffffffff\n      and\n      eq\n        /* \"voting.sol\":1932:1998  require(msg.sender == admin, \"Doar adminul poate da acces la vot\") */\n      tag_71\n      jumpi\n      mload(0x40)\n      0x08c379a000000000000000000000000000000000000000000000000000000000\n      dup2\n      mstore\n      0x04\n      add\n      tag_72\n      swap1\n      tag_73\n      jump\t// in\n    tag_72:\n      mload(0x40)\n      dup1\n      swap2\n      sub\n      swap1\n      revert\n    tag_71:\n        /* \"voting.sol\":2018:2025  votanti */\n      0x01\n        /* \"voting.sol\":2018:2033  votanti[votant] */\n      0x00\n        /* \"voting.sol\":2026:2032  votant */\n      dup3\n        /* \"voting.sol\":2018:2033  votanti[votant] */\n      0xffffffffffffffffffffffffffffffffffffffff\n      and\n      0xffffffffffffffffffffffffffffffffffffffff\n      and\n      dup2\n      mstore\n      0x20\n      add\n      swap1\n      dup2\n      mstore\n      0x20\n      add\n      0x00\n      keccak256\n        /* \"voting.sol\":2018:2040  votanti[votant].votare */\n      0x01\n      add\n      0x00\n      swap1\n      sload\n      swap1\n      0x0100\n      exp\n      swap1\n      div\n      0xff\n      and\n        /* \"voting.sol\":2017:2040  !votanti[votant].votare */\n      iszero\n        /* \"voting.sol\":2009:2080  require(!votanti[votant].votare, \"Votantul deja a  inregistrat un vot\") */\n      tag_74\n      jumpi\n      mload(0x40)\n      0x08c379a000000000000000000000000000000000000000000000000000000000\n      dup2\n      mstore\n      0x04\n      add\n      tag_75\n      swap1\n      tag_76\n      jump\t// in\n    tag_75:\n      mload(0x40)\n      dup1\n      swap2\n      sub\n      swap1\n      revert\n    tag_74:\n        /* \"voting.sol\":2130:2131  0 */\n      0x00\n        /* \"voting.sol\":2099:2106  votanti */\n      0x01\n        /* \"voting.sol\":2099:2114  votanti[votant] */\n      0x00\n        /* \"voting.sol\":2107:2113  votant */\n      dup4\n        /* \"voting.sol\":2099:2114  votanti[votant] */\n      0xffffffffffffffffffffffffffffffffffffffff\n      and\n      0xffffffffffffffffffffffffffffffffffffffff\n      and\n      dup2\n      mstore\n      0x20\n      add\n      swap1\n      dup2\n      mstore\n      0x20\n      add\n      0x00\n      keccak256\n        /* \"voting.sol\":2099:2126  votanti[votant].urmarireVot */\n      0x02\n      add\n      sload\n        /* \"voting.sol\":2099:2131  votanti[votant].urmarireVot == 0 */\n      eq\n        /* \"voting.sol\":2091:2132  require(votanti[votant].urmarireVot == 0) */\n      tag_77\n      jumpi\n      0x00\n      dup1\n      revert\n    tag_77:\n        /* \"voting.sol\":2173:2174  1 */\n      0x01\n        /* \"voting.sol\":2143:2150  votanti */\n      dup1\n        /* \"voting.sol\":2143:2158  votanti[votant] */\n      0x00\n        /* \"voting.sol\":2151:2157  votant */\n      dup4\n        /* \"voting.sol\":2143:2158  votanti[votant] */\n      0xffffffffffffffffffffffffffffffffffffffff\n      and\n      0xffffffffffffffffffffffffffffffffffffffff\n      and\n      dup2\n      mstore\n      0x20\n      add\n      swap1\n      dup2\n      mstore\n      0x20\n      add\n      0x00\n      keccak256\n        /* \"voting.sol\":2143:2170  votanti[votant].urmarireVot */\n      0x02\n      add\n        /* \"voting.sol\":2143:2174  votanti[votant].urmarireVot = 1 */\n      dup2\n      swap1\n      sstore\n      pop\n        /* \"voting.sol\":1880:2182  function dreptVot(address votant) public {... */\n      pop\n      jump\t// out\n        /* \"voting.sol\":914:1265  function setAdmin(address _admin) public {... */\n    tag_33:\n        /* \"voting.sol\":991:992  0 */\n      0x00\n        /* \"voting.sol\":974:993  admin == address(0) */\n      0xffffffffffffffffffffffffffffffffffffffff\n      and\n        /* \"voting.sol\":974:979  admin */\n      0x02\n      0x00\n      swap1\n      sload\n      swap1\n      0x0100\n      exp\n      swap1\n      div\n      0xffffffffffffffffffffffffffffffffffffffff\n      and\n        /* \"voting.sol\":974:993  admin == address(0) */\n      0xffffffffffffffffffffffffffffffffffffffff\n      and\n      eq\n        /* \"voting.sol\":966:1023  require(admin == address(0), \"Adminul a fost deja setat\") */\n      tag_79\n      jumpi\n      mload(0x40)\n      0x08c379a000000000000000000000000000000000000000000000000000000000\n      dup2\n      mstore\n      0x04\n      add\n      tag_80\n      swap1\n      tag_81\n      jump\t// in\n    tag_80:\n      mload(0x40)\n      dup1\n      swap2\n      sub\n      swap1\n      revert\n    tag_79:\n        /* \"voting.sol\":1042:1048  _admin */\n      dup1\n        /* \"voting.sol\":1034:1039  admin */\n      0x02\n      0x00\n        /* \"voting.sol\":1034:1048  admin = _admin */\n      0x0100\n      exp\n      dup2\n      sload\n      dup2\n      0xffffffffffffffffffffffffffffffffffffffff\n      mul\n      not\n      and\n      swap1\n      dup4\n      0xffffffffffffffffffffffffffffffffffffffff\n      and\n      mul\n      or\n      swap1\n      sstore\n      pop\n        /* \"voting.sol\":1059:1079  bytes memory payload */\n      0x00\n        /* \"voting.sol\":1122:1127  admin */\n      0x02\n      0x00\n      swap1\n      sload\n      swap1\n      0x0100\n      exp\n      swap1\n      div\n      0xffffffffffffffffffffffffffffffffffffffff\n      and\n        /* \"voting.sol\":1082:1128  abi.encodeWithSignature(\"vot(uint256)\", admin) */\n      add(0x24, mload(0x40))\n      tag_82\n      swap2\n      swap1\n      tag_54\n      jump\t// in\n    tag_82:\n      mload(0x40)\n      0x20\n      dup2\n      dup4\n      sub\n      sub\n      dup2\n      mstore\n      swap1\n      0x40\n      mstore\n      and(not(0xffffffffffffffffffffffffffffffffffffffffffffffffffffffff), 0xb18e2cbb00000000000000000000000000000000000000000000000000000000)\n      0x20\n      dup3\n      add\n      dup1\n      mload\n      0xffffffffffffffffffffffffffffffffffffffffffffffffffffffff\n      dup4\n      dup2\n      dup4\n      and\n      or\n      dup4\n      mstore\n      pop\n      pop\n      pop\n      pop\n        /* \"voting.sol\":1059:1128  bytes memory payload = abi.encodeWithSignature(\"vot(uint256)\", admin) */\n      swap1\n      pop\n        /* \"voting.sol\":1140:1152  bool success */\n      0x00\n        /* \"voting.sol\":1158:1168  msg.sender */\n      caller\n        /* \"voting.sol\":1158:1173  msg.sender.call */\n      0xffffffffffffffffffffffffffffffffffffffff\n      and\n        /* \"voting.sol\":1181:1182  0 */\n      0x00\n        /* \"voting.sol\":1189:1198  gasleft() */\n      gas\n        /* \"voting.sol\":1158:1208  msg.sender.call{value: 0, gas: gasleft()}(payload) */\n      swap1\n        /* \"voting.sol\":1200:1207  payload */\n      dup5\n        /* \"voting.sol\":1158:1208  msg.sender.call{value: 0, gas: gasleft()}(payload) */\n      mload(0x40)\n      tag_83\n      swap2\n      swap1\n      tag_84\n      jump\t// in\n    tag_83:\n      0x00\n      mload(0x40)\n      dup1\n      dup4\n      sub\n      dup2\n      dup6\n      dup9\n      dup9\n      call\n      swap4\n      pop\n      pop\n      pop\n      pop\n      returndatasize\n      dup1\n      0x00\n      dup2\n      eq\n      tag_87\n      jumpi\n      mload(0x40)\n      swap2\n      pop\n      and(add(returndatasize, 0x3f), not(0x1f))\n      dup3\n      add\n      0x40\n      mstore\n      returndatasize\n      dup3\n      mstore\n      returndatasize\n      0x00\n      0x20\n      dup5\n      add\n      returndatacopy\n      jump(tag_86)\n    tag_87:\n      0x60\n      swap2\n      pop\n    tag_86:\n      pop\n        /* \"voting.sol\":1139:1208  (bool success, ) = msg.sender.call{value: 0, gas: gasleft()}(payload) */\n      pop\n      swap1\n      pop\n        /* \"voting.sol\":1227:1234  success */\n      dup1\n        /* \"voting.sol\":1219:1257  require(success, \"Transaction failed\") */\n      tag_88\n      jumpi\n      mload(0x40)\n      0x08c379a000000000000000000000000000000000000000000000000000000000\n      dup2\n      mstore\n      0x04\n      add\n      tag_89\n      swap1\n      tag_90\n      jump\t// in\n    tag_89:\n      mload(0x40)\n      dup1\n      swap2\n      sub\n      swap1\n      revert\n    tag_88:\n        /* \"voting.sol\":955:1265  {... */\n      pop\n      pop\n        /* \"voting.sol\":914:1265  function setAdmin(address _admin) public {... */\n      pop\n      jump\t// out\n        /* \"voting.sol\":2190:2939  function vot(uint propunereVot) public {... */\n    tag_37:\n        /* \"voting.sol\":2240:2261  Votant storage sender */\n      0x00\n        /* \"voting.sol\":2264:2271  votanti */\n      0x01\n        /* \"voting.sol\":2264:2283  votanti[msg.sender] */\n      0x00\n        /* \"voting.sol\":2272:2282  msg.sender */\n      caller\n        /* \"voting.sol\":2264:2283  votanti[msg.sender] */\n      0xffffffffffffffffffffffffffffffffffffffff\n      and\n      0xffffffffffffffffffffffffffffffffffffffff\n      and\n      dup2\n      mstore\n      0x20\n      add\n      swap1\n      dup2\n      mstore\n      0x20\n      add\n      0x00\n      keccak256\n        /* \"voting.sol\":2240:2283  Votant storage sender = votanti[msg.sender] */\n      swap1\n      pop\n        /* \"voting.sol\":2402:2403  0 */\n      0x00\n        /* \"voting.sol\":2380:2386  sender */\n      dup2\n        /* \"voting.sol\":2380:2398  sender.urmarireVot */\n      0x02\n      add\n      sload\n        /* \"voting.sol\":2380:2403  sender.urmarireVot != 0 */\n      sub\n        /* \"voting.sol\":2372:2428  require(sender.urmarireVot != 0, \"Nu are drept de vot!\") */\n      tag_92\n      jumpi\n      mload(0x40)\n      0x08c379a000000000000000000000000000000000000000000000000000000000\n      dup2\n      mstore\n      0x04\n      add\n      tag_93\n      swap1\n      tag_94\n      jump\t// in\n    tag_93:\n      mload(0x40)\n      dup1\n      swap2\n      sub\n      swap1\n      revert\n    tag_92:\n        /* \"voting.sol\":2448:2454  sender */\n      dup1\n        /* \"voting.sol\":2448:2461  sender.votare */\n      0x01\n      add\n      0x00\n      swap1\n      sload\n      swap1\n      0x0100\n      exp\n      swap1\n      div\n      0xff\n      and\n        /* \"voting.sol\":2447:2461  !sender.votare */\n      iszero\n        /* \"voting.sol\":2439:2478  require(!sender.votare, \"Deja a votat\") */\n      tag_95\n      jumpi\n      mload(0x40)\n      0x08c379a000000000000000000000000000000000000000000000000000000000\n      dup2\n      mstore\n      0x04\n      add\n      tag_96\n      swap1\n      tag_97\n      jump\t// in\n    tag_96:\n      mload(0x40)\n      dup1\n      swap2\n      sub\n      swap1\n      revert\n    tag_95:\n        /* \"voting.sol\":2505:2509  true */\n      0x01\n        /* \"voting.sol\":2489:2495  sender */\n      dup2\n        /* \"voting.sol\":2489:2502  sender.votare */\n      0x01\n      add\n      0x00\n        /* \"voting.sol\":2489:2509  sender.votare = true */\n      0x0100\n      exp\n      dup2\n      sload\n      dup2\n      0xff\n      mul\n      not\n      and\n      swap1\n      dup4\n      iszero\n      iszero\n      mul\n      or\n      swap1\n      sstore\n      pop\n        /* \"voting.sol\":2533:2545  propunereVot */\n      dup2\n        /* \"voting.sol\":2520:2526  sender */\n      dup2\n        /* \"voting.sol\":2520:2530  sender.vot */\n      0x00\n      add\n        /* \"voting.sol\":2520:2545  sender.vot = propunereVot */\n      dup2\n      swap1\n      sstore\n      pop\n        /* \"voting.sol\":2660:2666  sender */\n      dup1\n        /* \"voting.sol\":2660:2678  sender.urmarireVot */\n      0x02\n      add\n      sload\n        /* \"voting.sol\":2609:2618  propuneri */\n      0x00\n        /* \"voting.sol\":2619:2631  propunereVot */\n      dup4\n        /* \"voting.sol\":2609:2632  propuneri[propunereVot] */\n      dup2\n      sload\n      dup2\n      lt\n      tag_98\n      jumpi\n      tag_99\n      tag_59\n      jump\t// in\n    tag_99:\n    tag_98:\n      swap1\n      0x00\n      mstore\n      keccak256(0x00, 0x20)\n      swap1\n      0x02\n      mul\n      add\n        /* \"voting.sol\":2609:2644  propuneri[propunereVot].numarVoturi */\n      0x01\n      add\n      sload\n        /* \"voting.sol\":2609:2678  propuneri[propunereVot].numarVoturi +... */\n      tag_101\n      swap2\n      swap1\n      tag_102\n      jump\t// in\n    tag_101:\n        /* \"voting.sol\":2558:2567  propuneri */\n      0x00\n        /* \"voting.sol\":2568:2580  propunereVot */\n      dup4\n        /* \"voting.sol\":2558:2581  propuneri[propunereVot] */\n      dup2\n      sload\n      dup2\n      lt\n      tag_103\n      jumpi\n      tag_104\n      tag_59\n      jump\t// in\n    tag_104:\n    tag_103:\n      swap1\n      0x00\n      mstore\n      keccak256(0x00, 0x20)\n      swap1\n      0x02\n      mul\n      add\n        /* \"voting.sol\":2558:2593  propuneri[propunereVot].numarVoturi */\n      0x01\n      add\n        /* \"voting.sol\":2558:2678  propuneri[propunereVot].numarVoturi =... */\n      dup2\n      swap1\n      sstore\n      pop\n        /* \"voting.sol\":2689:2709  bytes memory payload */\n      0x00\n        /* \"voting.sol\":2779:2791  propunereVot */\n      dup3\n        /* \"voting.sol\":2712:2802  abi.encodeWithSignature(... */\n      add(0x24, mload(0x40))\n      tag_106\n      swap2\n      swap1\n      tag_41\n      jump\t// in\n    tag_106:\n      mload(0x40)\n      0x20\n      dup2\n      dup4\n      sub\n      sub\n      dup2\n      mstore\n      swap1\n      0x40\n      mstore\n      and(not(0xffffffffffffffffffffffffffffffffffffffffffffffffffffffff), 0xb18e2cbb00000000000000000000000000000000000000000000000000000000)\n      0x20\n      dup3\n      add\n      dup1\n      mload\n      0xffffffffffffffffffffffffffffffffffffffffffffffffffffffff\n      dup4\n      dup2\n      dup4\n      and\n      or\n      dup4\n      mstore\n      pop\n      pop\n      pop\n      pop\n        /* \"voting.sol\":2689:2802  bytes memory payload = abi.encodeWithSignature(... */\n      swap1\n      pop\n        /* \"voting.sol\":2814:2826  bool success */\n      0x00\n        /* \"voting.sol\":2832:2842  msg.sender */\n      caller\n        /* \"voting.sol\":2832:2847  msg.sender.call */\n      0xffffffffffffffffffffffffffffffffffffffff\n      and\n        /* \"voting.sol\":2855:2856  0 */\n      0x00\n        /* \"voting.sol\":2863:2872  gasleft() */\n      gas\n        /* \"voting.sol\":2832:2882  msg.sender.call{value: 0, gas: gasleft()}(payload) */\n      swap1\n        /* \"voting.sol\":2874:2881  payload */\n      dup5\n        /* \"voting.sol\":2832:2882  msg.sender.call{value: 0, gas: gasleft()}(payload) */\n      mload(0x40)\n      tag_107\n      swap2\n      swap1\n      tag_84\n      jump\t// in\n    tag_107:\n      0x00\n      mload(0x40)\n      dup1\n      dup4\n      sub\n      dup2\n      dup6\n      dup9\n      dup9\n      call\n      swap4\n      pop\n      pop\n      pop\n      pop\n      returndatasize\n      dup1\n      0x00\n      dup2\n      eq\n      tag_110\n      jumpi\n      mload(0x40)\n      swap2\n      pop\n      and(add(returndatasize, 0x3f), not(0x1f))\n      dup3\n      add\n      0x40\n      mstore\n      returndatasize\n      dup3\n      mstore\n      returndatasize\n      0x00\n      0x20\n      dup5\n      add\n      returndatacopy\n      jump(tag_109)\n    tag_110:\n      0x60\n      swap2\n      pop\n    tag_109:\n      pop\n        /* \"voting.sol\":2813:2882  (bool success, ) = msg.sender.call{value: 0, gas: gasleft()}(payload) */\n      pop\n      swap1\n      pop\n        /* \"voting.sol\":2901:2908  success */\n      dup1\n        /* \"voting.sol\":2893:2931  require(success, \"Transaction failed\") */\n      tag_111\n      jumpi\n      mload(0x40)\n      0x08c379a000000000000000000000000000000000000000000000000000000000\n      dup2\n      mstore\n      0x04\n      add\n      tag_112\n      swap1\n      tag_90\n      jump\t// in\n    tag_112:\n      mload(0x40)\n      dup1\n      swap2\n      sub\n      swap1\n      revert\n    tag_111:\n        /* \"voting.sol\":2229:2939  {... */\n      pop\n      pop\n      pop\n        /* \"voting.sol\":2190:2939  function vot(uint propunereVot) public {... */\n      pop\n      jump\t// out\n        /* \"voting.sol\":2947:3363  function castigatorAlegeri()... */\n    tag_39:\n        /* \"voting.sol\":3024:3048  uint candidatCastigator_ */\n      0x00\n        /* \"voting.sol\":3066:3092  uint numarVoturiCastigator */\n      dup1\n        /* \"voting.sol\":3095:3096  0 */\n      0x00\n        /* \"voting.sol\":3066:3096  uint numarVoturiCastigator = 0 */\n      swap1\n      pop\n        /* \"voting.sol\":3112:3118  uint i */\n      0x00\n        /* \"voting.sol\":3107:3356  for (uint i = 0; i < propuneri.length; i++) {... */\n    tag_114:\n        /* \"voting.sol\":3128:3137  propuneri */\n      0x00\n        /* \"voting.sol\":3128:3144  propuneri.length */\n      dup1\n      sload\n      swap1\n      pop\n        /* \"voting.sol\":3124:3125  i */\n      dup2\n        /* \"voting.sol\":3124:3144  i < propuneri.length */\n      lt\n        /* \"voting.sol\":3107:3356  for (uint i = 0; i < propuneri.length; i++) {... */\n      iszero\n      tag_115\n      jumpi\n        /* \"voting.sol\":3197:3218  numarVoturiCastigator */\n      dup2\n        /* \"voting.sol\":3170:3179  propuneri */\n      0x00\n        /* \"voting.sol\":3180:3181  i */\n      dup3\n        /* \"voting.sol\":3170:3182  propuneri[i] */\n      dup2\n      sload\n      dup2\n      lt\n      tag_117\n      jumpi\n      tag_118\n      tag_59\n      jump\t// in\n    tag_118:\n    tag_117:\n      swap1\n      0x00\n      mstore\n      keccak256(0x00, 0x20)\n      swap1\n      0x02\n      mul\n      add\n        /* \"voting.sol\":3170:3194  propuneri[i].numarVoturi */\n      0x01\n      add\n      sload\n        /* \"voting.sol\":3170:3218  propuneri[i].numarVoturi > numarVoturiCastigator */\n      gt\n        /* \"voting.sol\":3166:3345  if (propuneri[i].numarVoturi > numarVoturiCastigator) {... */\n      iszero\n      tag_120\n      jumpi\n        /* \"voting.sol\":3263:3272  propuneri */\n      0x00\n        /* \"voting.sol\":3273:3274  i */\n      dup2\n        /* \"voting.sol\":3263:3275  propuneri[i] */\n      dup2\n      sload\n      dup2\n      lt\n      tag_121\n      jumpi\n      tag_122\n      tag_59\n      jump\t// in\n    tag_122:\n    tag_121:\n      swap1\n      0x00\n      mstore\n      keccak256(0x00, 0x20)\n      swap1\n      0x02\n      mul\n      add\n        /* \"voting.sol\":3263:3287  propuneri[i].numarVoturi */\n      0x01\n      add\n      sload\n        /* \"voting.sol\":3239:3287  numarVoturiCastigator = propuneri[i].numarVoturi */\n      swap2\n      pop\n        /* \"voting.sol\":3328:3329  i */\n      dup1\n        /* \"voting.sol\":3306:3329  candidatCastigator_ = i */\n      swap3\n      pop\n        /* \"voting.sol\":3166:3345  if (propuneri[i].numarVoturi > numarVoturiCastigator) {... */\n    tag_120:\n        /* \"voting.sol\":3146:3149  i++ */\n      dup1\n      dup1\n      tag_124\n      swap1\n      tag_125\n      jump\t// in\n    tag_124:\n      swap2\n      pop\n      pop\n        /* \"voting.sol\":3107:3356  for (uint i = 0; i < propuneri.length; i++) {... */\n      jump(tag_114)\n    tag_115:\n      pop\n        /* \"voting.sol\":3055:3363  {... */\n      pop\n        /* \"voting.sol\":2947:3363  function castigatorAlegeri()... */\n      swap1\n      jump\t// out\n        /* \"voting.sol\":282:313  PropunereVot[] public propuneri */\n    tag_44:\n      0x00\n      dup2\n      dup2\n      sload\n      dup2\n      lt\n      tag_126\n      jumpi\n      0x00\n      dup1\n      revert\n    tag_126:\n      swap1\n      0x00\n      mstore\n      keccak256(0x00, 0x20)\n      swap1\n      0x02\n      mul\n      add\n      0x00\n      swap2\n      pop\n      swap1\n      pop\n      dup1\n      0x00\n      add\n      sload\n      swap1\n      dup1\n      0x01\n      add\n      sload\n      swap1\n      pop\n      dup3\n      jump\t// out\n        /* \"voting.sol\":610:908  function getPropuneri() public view returns (bytes32[] memory) {... */\n    tag_48:\n        /* \"voting.sol\":655:671  bytes32[] memory */\n      0x60\n        /* \"voting.sol\":684:714  bytes32[] memory numePropuneri */\n      0x00\n        /* \"voting.sol\":731:740  propuneri */\n      dup1\n        /* \"voting.sol\":731:747  propuneri.length */\n      dup1\n      sload\n      swap1\n      pop\n        /* \"voting.sol\":717:748  new bytes32[](propuneri.length) */\n      0xffffffffffffffff\n      dup2\n      gt\n      iszero\n      tag_129\n      jumpi\n      tag_130\n      tag_131\n      jump\t// in\n    tag_130:\n    tag_129:\n      mload(0x40)\n      swap1\n      dup1\n      dup3\n      mstore\n      dup1\n      0x20\n      mul\n      0x20\n      add\n      dup3\n      add\n      0x40\n      mstore\n      dup1\n      iszero\n      tag_132\n      jumpi\n      dup2\n      0x20\n      add\n      0x20\n      dup3\n      mul\n      dup1\n      calldatasize\n      dup4\n      calldatacopy\n      dup1\n      dup3\n      add\n      swap2\n      pop\n      pop\n      swap1\n      pop\n    tag_132:\n      pop\n        /* \"voting.sol\":684:748  bytes32[] memory numePropuneri = new bytes32[](propuneri.length) */\n      swap1\n      pop\n        /* \"voting.sol\":766:772  uint i */\n      0x00\n        /* \"voting.sol\":761:868  for (uint i = 0; i < propuneri.length; i++) {... */\n    tag_133:\n        /* \"voting.sol\":782:791  propuneri */\n      0x00\n        /* \"voting.sol\":782:798  propuneri.length */\n      dup1\n      sload\n      swap1\n      pop\n        /* \"voting.sol\":778:779  i */\n      dup2\n        /* \"voting.sol\":778:798  i < propuneri.length */\n      lt\n        /* \"voting.sol\":761:868  for (uint i = 0; i < propuneri.length; i++) {... */\n      iszero\n      tag_134\n      jumpi\n        /* \"voting.sol\":839:848  propuneri */\n      0x00\n        /* \"voting.sol\":849:850  i */\n      dup2\n        /* \"voting.sol\":839:851  propuneri[i] */\n      dup2\n      sload\n      dup2\n      lt\n      tag_136\n      jumpi\n      tag_137\n      tag_59\n      jump\t// in\n    tag_137:\n    tag_136:\n      swap1\n      0x00\n      mstore\n      keccak256(0x00, 0x20)\n      swap1\n      0x02\n      mul\n      add\n        /* \"voting.sol\":839:856  propuneri[i].nume */\n      0x00\n      add\n      sload\n        /* \"voting.sol\":820:833  numePropuneri */\n      dup3\n        /* \"voting.sol\":834:835  i */\n      dup3\n        /* \"voting.sol\":820:836  numePropuneri[i] */\n      dup2\n      mload\n      dup2\n      lt\n      tag_139\n      jumpi\n      tag_140\n      tag_59\n      jump\t// in\n    tag_140:\n    tag_139:\n      0x20\n      mul\n      0x20\n      add\n      add\n        /* \"voting.sol\":820:856  numePropuneri[i] = propuneri[i].nume */\n      dup2\n      dup2\n      mstore\n      pop\n      pop\n        /* \"voting.sol\":800:803  i++ */\n      dup1\n      dup1\n      tag_141\n      swap1\n      tag_125\n      jump\t// in\n    tag_141:\n      swap2\n      pop\n      pop\n        /* \"voting.sol\":761:868  for (uint i = 0; i < propuneri.length; i++) {... */\n      jump(tag_133)\n    tag_134:\n      pop\n        /* \"voting.sol\":887:900  numePropuneri */\n      dup1\n        /* \"voting.sol\":880:900  return numePropuneri */\n      swap2\n      pop\n      pop\n        /* \"voting.sol\":610:908  function getPropuneri() public view returns (bytes32[] memory) {... */\n      swap1\n      jump\t// out\n        /* \"voting.sol\":372:392  address public admin */\n    tag_52:\n      0x02\n      0x00\n      swap1\n      sload\n      swap1\n      0x0100\n      exp\n      swap1\n      div\n      0xffffffffffffffffffffffffffffffffffffffff\n      and\n      dup2\n      jump\t// out\n        /* \"#utility.yul\":7:84   */\n    tag_142:\n        /* \"#utility.yul\":44:51   */\n      0x00\n        /* \"#utility.yul\":73:78   */\n      dup2\n        /* \"#utility.yul\":62:78   */\n      swap1\n      pop\n        /* \"#utility.yul\":7:84   */\n      swap2\n      swap1\n      pop\n      jump\t// out\n        /* \"#utility.yul\":90:208   */\n    tag_143:\n        /* \"#utility.yul\":177:201   */\n      tag_192\n        /* \"#utility.yul\":195:200   */\n      dup2\n        /* \"#utility.yul\":177:201   */\n      tag_142\n      jump\t// in\n    tag_192:\n        /* \"#utility.yul\":172:175   */\n      dup3\n        /* \"#utility.yul\":165:202   */\n      mstore\n        /* \"#utility.yul\":90:208   */\n      pop\n      pop\n      jump\t// out\n        /* \"#utility.yul\":214:436   */\n    tag_17:\n        /* \"#utility.yul\":307:311   */\n      0x00\n        /* \"#utility.yul\":345:347   */\n      0x20\n        /* \"#utility.yul\":334:343   */\n      dup3\n        /* \"#utility.yul\":330:348   */\n      add\n        /* \"#utility.yul\":322:348   */\n      swap1\n      pop\n        /* \"#utility.yul\":358:429   */\n      tag_194\n        /* \"#utility.yul\":426:427   */\n      0x00\n        /* \"#utility.yul\":415:424   */\n      dup4\n        /* \"#utility.yul\":411:428   */\n      add\n        /* \"#utility.yul\":402:408   */\n      dup5\n        /* \"#utility.yul\":358:429   */\n      tag_143\n      jump\t// in\n    tag_194:\n        /* \"#utility.yul\":214:436   */\n      swap3\n      swap2\n      pop\n      pop\n      jump\t// out\n        /* \"#utility.yul\":523:640   */\n    tag_145:\n        /* \"#utility.yul\":632:633   */\n      0x00\n        /* \"#utility.yul\":629:630   */\n      dup1\n        /* \"#utility.yul\":622:634   */\n      revert\n        /* \"#utility.yul\":769:891   */\n    tag_147:\n        /* \"#utility.yul\":842:866   */\n      tag_199\n        /* \"#utility.yul\":860:865   */\n      dup2\n        /* \"#utility.yul\":842:866   */\n      tag_142\n      jump\t// in\n    tag_199:\n        /* \"#utility.yul\":835:840   */\n      dup2\n        /* \"#utility.yul\":832:867   */\n      eq\n        /* \"#utility.yul\":822:885   */\n      tag_200\n      jumpi\n        /* \"#utility.yul\":881:882   */\n      0x00\n        /* \"#utility.yul\":878:879   */\n      dup1\n        /* \"#utility.yul\":871:883   */\n      revert\n        /* \"#utility.yul\":822:885   */\n    tag_200:\n        /* \"#utility.yul\":769:891   */\n      pop\n      jump\t// out\n        /* \"#utility.yul\":897:1036   */\n    tag_148:\n        /* \"#utility.yul\":943:948   */\n      0x00\n        /* \"#utility.yul\":981:987   */\n      dup2\n        /* \"#utility.yul\":968:988   */\n      calldataload\n        /* \"#utility.yul\":959:988   */\n      swap1\n      pop\n        /* \"#utility.yul\":997:1030   */\n      tag_202\n        /* \"#utility.yul\":1024:1029   */\n      dup2\n        /* \"#utility.yul\":997:1030   */\n      tag_147\n      jump\t// in\n    tag_202:\n        /* \"#utility.yul\":897:1036   */\n      swap3\n      swap2\n      pop\n      pop\n      jump\t// out\n        /* \"#utility.yul\":1042:1371   */\n    tag_20:\n        /* \"#utility.yul\":1101:1107   */\n      0x00\n        /* \"#utility.yul\":1150:1152   */\n      0x20\n        /* \"#utility.yul\":1138:1147   */\n      dup3\n        /* \"#utility.yul\":1129:1136   */\n      dup5\n        /* \"#utility.yul\":1125:1148   */\n      sub\n        /* \"#utility.yul\":1121:1153   */\n      slt\n        /* \"#utility.yul\":1118:1237   */\n      iszero\n      tag_204\n      jumpi\n        /* \"#utility.yul\":1156:1235   */\n      tag_205\n      tag_145\n      jump\t// in\n    tag_205:\n        /* \"#utility.yul\":1118:1237   */\n    tag_204:\n        /* \"#utility.yul\":1276:1277   */\n      0x00\n        /* \"#utility.yul\":1301:1354   */\n      tag_206\n        /* \"#utility.yul\":1346:1353   */\n      dup5\n        /* \"#utility.yul\":1337:1343   */\n      dup3\n        /* \"#utility.yul\":1326:1335   */\n      dup6\n        /* \"#utility.yul\":1322:1344   */\n      add\n        /* \"#utility.yul\":1301:1354   */\n      tag_148\n      jump\t// in\n    tag_206:\n        /* \"#utility.yul\":1291:1354   */\n      swap2\n      pop\n        /* \"#utility.yul\":1247:1364   */\n      pop\n        /* \"#utility.yul\":1042:1371   */\n      swap3\n      swap2\n      pop\n      pop\n      jump\t// out\n        /* \"#utility.yul\":1377:1503   */\n    tag_149:\n        /* \"#utility.yul\":1414:1421   */\n      0x00\n        /* \"#utility.yul\":1454:1496   */\n      0xffffffffffffffffffffffffffffffffffffffff\n        /* \"#utility.yul\":1447:1452   */\n      dup3\n        /* \"#utility.yul\":1443:1497   */\n      and\n        /* \"#utility.yul\":1432:1497   */\n      swap1\n      pop\n        /* \"#utility.yul\":1377:1503   */\n      swap2\n      swap1\n      pop\n      jump\t// out\n        /* \"#utility.yul\":1509:1605   */\n    tag_150:\n        /* \"#utility.yul\":1546:1553   */\n      0x00\n        /* \"#utility.yul\":1575:1599   */\n      tag_209\n        /* \"#utility.yul\":1593:1598   */\n      dup3\n        /* \"#utility.yul\":1575:1599   */\n      tag_149\n      jump\t// in\n    tag_209:\n        /* \"#utility.yul\":1564:1599   */\n      swap1\n      pop\n        /* \"#utility.yul\":1509:1605   */\n      swap2\n      swap1\n      pop\n      jump\t// out\n        /* \"#utility.yul\":1611:1733   */\n    tag_151:\n        /* \"#utility.yul\":1684:1708   */\n      tag_211\n        /* \"#utility.yul\":1702:1707   */\n      dup2\n        /* \"#utility.yul\":1684:1708   */\n      tag_150\n      jump\t// in\n    tag_211:\n        /* \"#utility.yul\":1677:1682   */\n      dup2\n        /* \"#utility.yul\":1674:1709   */\n      eq\n        /* \"#utility.yul\":1664:1727   */\n      tag_212\n      jumpi\n        /* \"#utility.yul\":1723:1724   */\n      0x00\n        /* \"#utility.yul\":1720:1721   */\n      dup1\n        /* \"#utility.yul\":1713:1725   */\n      revert\n        /* \"#utility.yul\":1664:1727   */\n    tag_212:\n        /* \"#utility.yul\":1611:1733   */\n      pop\n      jump\t// out\n        /* \"#utility.yul\":1739:1878   */\n    tag_152:\n        /* \"#utility.yul\":1785:1790   */\n      0x00\n        /* \"#utility.yul\":1823:1829   */\n      dup2\n        /* \"#utility.yul\":1810:1830   */\n      calldataload\n        /* \"#utility.yul\":1801:1830   */\n      swap1\n      pop\n        /* \"#utility.yul\":1839:1872   */\n      tag_214\n        /* \"#utility.yul\":1866:1871   */\n      dup2\n        /* \"#utility.yul\":1839:1872   */\n      tag_151\n      jump\t// in\n    tag_214:\n        /* \"#utility.yul\":1739:1878   */\n      swap3\n      swap2\n      pop\n      pop\n      jump\t// out\n        /* \"#utility.yul\":1884:2213   */\n    tag_24:\n        /* \"#utility.yul\":1943:1949   */\n      0x00\n        /* \"#utility.yul\":1992:1994   */\n      0x20\n        /* \"#utility.yul\":1980:1989   */\n      dup3\n        /* \"#utility.yul\":1971:1978   */\n      dup5\n        /* \"#utility.yul\":1967:1990   */\n      sub\n        /* \"#utility.yul\":1963:1995   */\n      slt\n        /* \"#utility.yul\":1960:2079   */\n      iszero\n      tag_216\n      jumpi\n        /* \"#utility.yul\":1998:2077   */\n      tag_217\n      tag_145\n      jump\t// in\n    tag_217:\n        /* \"#utility.yul\":1960:2079   */\n    tag_216:\n        /* \"#utility.yul\":2118:2119   */\n      0x00\n        /* \"#utility.yul\":2143:2196   */\n      tag_218\n        /* \"#utility.yul\":2188:2195   */\n      dup5\n        /* \"#utility.yul\":2179:2185   */\n      dup3\n        /* \"#utility.yul\":2168:2177   */\n      dup6\n        /* \"#utility.yul\":2164:2186   */\n      add\n        /* \"#utility.yul\":2143:2196   */\n      tag_152\n      jump\t// in\n    tag_218:\n        /* \"#utility.yul\":2133:2196   */\n      swap2\n      pop\n        /* \"#utility.yul\":2089:2206   */\n      pop\n        /* \"#utility.yul\":1884:2213   */\n      swap3\n      swap2\n      pop\n      pop\n      jump\t// out\n        /* \"#utility.yul\":2219:2296   */\n    tag_153:\n        /* \"#utility.yul\":2256:2263   */\n      0x00\n        /* \"#utility.yul\":2285:2290   */\n      dup2\n        /* \"#utility.yul\":2274:2290   */\n      swap1\n      pop\n        /* \"#utility.yul\":2219:2296   */\n      swap2\n      swap1\n      pop\n      jump\t// out\n        /* \"#utility.yul\":2302:2420   */\n    tag_154:\n        /* \"#utility.yul\":2389:2413   */\n      tag_221\n        /* \"#utility.yul\":2407:2412   */\n      dup2\n        /* \"#utility.yul\":2389:2413   */\n      tag_153\n      jump\t// in\n    tag_221:\n        /* \"#utility.yul\":2384:2387   */\n      dup3\n        /* \"#utility.yul\":2377:2414   */\n      mstore\n        /* \"#utility.yul\":2302:2420   */\n      pop\n      pop\n      jump\t// out\n        /* \"#utility.yul\":2426:2516   */\n    tag_155:\n        /* \"#utility.yul\":2460:2467   */\n      0x00\n        /* \"#utility.yul\":2503:2508   */\n      dup2\n        /* \"#utility.yul\":2496:2509   */\n      iszero\n        /* \"#utility.yul\":2489:2510   */\n      iszero\n        /* \"#utility.yul\":2478:2510   */\n      swap1\n      pop\n        /* \"#utility.yul\":2426:2516   */\n      swap2\n      swap1\n      pop\n      jump\t// out\n        /* \"#utility.yul\":2522:2631   */\n    tag_156:\n        /* \"#utility.yul\":2603:2624   */\n      tag_224\n        /* \"#utility.yul\":2618:2623   */\n      dup2\n        /* \"#utility.yul\":2603:2624   */\n      tag_155\n      jump\t// in\n    tag_224:\n        /* \"#utility.yul\":2598:2601   */\n      dup3\n        /* \"#utility.yul\":2591:2625   */\n      mstore\n        /* \"#utility.yul\":2522:2631   */\n      pop\n      pop\n      jump\t// out\n        /* \"#utility.yul\":2637:3067   */\n    tag_27:\n        /* \"#utility.yul\":2780:2784   */\n      0x00\n        /* \"#utility.yul\":2818:2820   */\n      0x60\n        /* \"#utility.yul\":2807:2816   */\n      dup3\n        /* \"#utility.yul\":2803:2821   */\n      add\n        /* \"#utility.yul\":2795:2821   */\n      swap1\n      pop\n        /* \"#utility.yul\":2831:2902   */\n      tag_226\n        /* \"#utility.yul\":2899:2900   */\n      0x00\n        /* \"#utility.yul\":2888:2897   */\n      dup4\n        /* \"#utility.yul\":2884:2901   */\n      add\n        /* \"#utility.yul\":2875:2881   */\n      dup7\n        /* \"#utility.yul\":2831:2902   */\n      tag_154\n      jump\t// in\n    tag_226:\n        /* \"#utility.yul\":2912:2978   */\n      tag_227\n        /* \"#utility.yul\":2974:2976   */\n      0x20\n        /* \"#utility.yul\":2963:2972   */\n      dup4\n        /* \"#utility.yul\":2959:2977   */\n      add\n        /* \"#utility.yul\":2950:2956   */\n      dup6\n        /* \"#utility.yul\":2912:2978   */\n      tag_156\n      jump\t// in\n    tag_227:\n        /* \"#utility.yul\":2988:3060   */\n      tag_228\n        /* \"#utility.yul\":3056:3058   */\n      0x40\n        /* \"#utility.yul\":3045:3054   */\n      dup4\n        /* \"#utility.yul\":3041:3059   */\n      add\n        /* \"#utility.yul\":3032:3038   */\n      dup5\n        /* \"#utility.yul\":2988:3060   */\n      tag_154\n      jump\t// in\n    tag_228:\n        /* \"#utility.yul\":2637:3067   */\n      swap5\n      swap4\n      pop\n      pop\n      pop\n      pop\n      jump\t// out\n        /* \"#utility.yul\":3073:3195   */\n    tag_157:\n        /* \"#utility.yul\":3146:3170   */\n      tag_230\n        /* \"#utility.yul\":3164:3169   */\n      dup2\n        /* \"#utility.yul\":3146:3170   */\n      tag_153\n      jump\t// in\n    tag_230:\n        /* \"#utility.yul\":3139:3144   */\n      dup2\n        /* \"#utility.yul\":3136:3171   */\n      eq\n        /* \"#utility.yul\":3126:3189   */\n      tag_231\n      jumpi\n        /* \"#utility.yul\":3185:3186   */\n      0x00\n        /* \"#utility.yul\":3182:3183   */\n      dup1\n        /* \"#utility.yul\":3175:3187   */\n      revert\n        /* \"#utility.yul\":3126:3189   */\n    tag_231:\n        /* \"#utility.yul\":3073:3195   */\n      pop\n      jump\t// out\n        /* \"#utility.yul\":3201:3340   */\n    tag_158:\n        /* \"#utility.yul\":3247:3252   */\n      0x00\n        /* \"#utility.yul\":3285:3291   */\n      dup2\n        /* \"#utility.yul\":3272:3292   */\n      calldataload\n        /* \"#utility.yul\":3263:3292   */\n      swap1\n      pop\n        /* \"#utility.yul\":3301:3334   */\n      tag_233\n        /* \"#utility.yul\":3328:3333   */\n      dup2\n        /* \"#utility.yul\":3301:3334   */\n      tag_157\n      jump\t// in\n    tag_233:\n        /* \"#utility.yul\":3201:3340   */\n      swap3\n      swap2\n      pop\n      pop\n      jump\t// out\n        /* \"#utility.yul\":3346:3675   */\n    tag_36:\n        /* \"#utility.yul\":3405:3411   */\n      0x00\n        /* \"#utility.yul\":3454:3456   */\n      0x20\n        /* \"#utility.yul\":3442:3451   */\n      dup3\n        /* \"#utility.yul\":3433:3440   */\n      dup5\n        /* \"#utility.yul\":3429:3452   */\n      sub\n        /* \"#utility.yul\":3425:3457   */\n      slt\n        /* \"#utility.yul\":3422:3541   */\n      iszero\n      tag_235\n      jumpi\n        /* \"#utility.yul\":3460:3539   */\n      tag_236\n      tag_145\n      jump\t// in\n    tag_236:\n        /* \"#utility.yul\":3422:3541   */\n    tag_235:\n        /* \"#utility.yul\":3580:3581   */\n      0x00\n        /* \"#utility.yul\":3605:3658   */\n      tag_237\n        /* \"#utility.yul\":3650:3657   */\n      dup5\n        /* \"#utility.yul\":3641:3647   */\n      dup3\n        /* \"#utility.yul\":3630:3639   */\n      dup6\n        /* \"#utility.yul\":3626:3648   */\n      add\n        /* \"#utility.yul\":3605:3658   */\n      tag_158\n      jump\t// in\n    tag_237:\n        /* \"#utility.yul\":3595:3658   */\n      swap2\n      pop\n        /* \"#utility.yul\":3551:3668   */\n      pop\n        /* \"#utility.yul\":3346:3675   */\n      swap3\n      swap2\n      pop\n      pop\n      jump\t// out\n        /* \"#utility.yul\":3681:3903   */\n    tag_41:\n        /* \"#utility.yul\":3774:3778   */\n      0x00\n        /* \"#utility.yul\":3812:3814   */\n      0x20\n        /* \"#utility.yul\":3801:3810   */\n      dup3\n        /* \"#utility.yul\":3797:3815   */\n      add\n        /* \"#utility.yul\":3789:3815   */\n      swap1\n      pop\n        /* \"#utility.yul\":3825:3896   */\n      tag_239\n        /* \"#utility.yul\":3893:3894   */\n      0x00\n        /* \"#utility.yul\":3882:3891   */\n      dup4\n        /* \"#utility.yul\":3878:3895   */\n      add\n        /* \"#utility.yul\":3869:3875   */\n      dup5\n        /* \"#utility.yul\":3825:3896   */\n      tag_154\n      jump\t// in\n    tag_239:\n        /* \"#utility.yul\":3681:3903   */\n      swap3\n      swap2\n      pop\n      pop\n      jump\t// out\n        /* \"#utility.yul\":3909:4241   */\n    tag_46:\n        /* \"#utility.yul\":4030:4034   */\n      0x00\n        /* \"#utility.yul\":4068:4070   */\n      0x40\n        /* \"#utility.yul\":4057:4066   */\n      dup3\n        /* \"#utility.yul\":4053:4071   */\n      add\n        /* \"#utility.yul\":4045:4071   */\n      swap1\n      pop\n        /* \"#utility.yul\":4081:4152   */\n      tag_241\n        /* \"#utility.yul\":4149:4150   */\n      0x00\n        /* \"#utility.yul\":4138:4147   */\n      dup4\n        /* \"#utility.yul\":4134:4151   */\n      add\n        /* \"#utility.yul\":4125:4131   */\n      dup6\n        /* \"#utility.yul\":4081:4152   */\n      tag_143\n      jump\t// in\n    tag_241:\n        /* \"#utility.yul\":4162:4234   */\n      tag_242\n        /* \"#utility.yul\":4230:4232   */\n      0x20\n        /* \"#utility.yul\":4219:4228   */\n      dup4\n        /* \"#utility.yul\":4215:4233   */\n      add\n        /* \"#utility.yul\":4206:4212   */\n      dup5\n        /* \"#utility.yul\":4162:4234   */\n      tag_154\n      jump\t// in\n    tag_242:\n        /* \"#utility.yul\":3909:4241   */\n      swap4\n      swap3\n      pop\n      pop\n      pop\n      jump\t// out\n        /* \"#utility.yul\":4247:4361   */\n    tag_159:\n        /* \"#utility.yul\":4314:4320   */\n      0x00\n        /* \"#utility.yul\":4348:4353   */\n      dup2\n        /* \"#utility.yul\":4342:4354   */\n      mload\n        /* \"#utility.yul\":4332:4354   */\n      swap1\n      pop\n        /* \"#utility.yul\":4247:4361   */\n      swap2\n      swap1\n      pop\n      jump\t// out\n        /* \"#utility.yul\":4367:4551   */\n    tag_160:\n        /* \"#utility.yul\":4466:4477   */\n      0x00\n        /* \"#utility.yul\":4500:4506   */\n      dup3\n        /* \"#utility.yul\":4495:4498   */\n      dup3\n        /* \"#utility.yul\":4488:4507   */\n      mstore\n        /* \"#utility.yul\":4540:4544   */\n      0x20\n        /* \"#utility.yul\":4535:4538   */\n      dup3\n        /* \"#utility.yul\":4531:4545   */\n      add\n        /* \"#utility.yul\":4516:4545   */\n      swap1\n      pop\n        /* \"#utility.yul\":4367:4551   */\n      swap3\n      swap2\n      pop\n      pop\n      jump\t// out\n        /* \"#utility.yul\":4557:4689   */\n    tag_161:\n        /* \"#utility.yul\":4624:4628   */\n      0x00\n        /* \"#utility.yul\":4647:4650   */\n      dup2\n        /* \"#utility.yul\":4639:4650   */\n      swap1\n      pop\n        /* \"#utility.yul\":4677:4681   */\n      0x20\n        /* \"#utility.yul\":4672:4675   */\n      dup3\n        /* \"#utility.yul\":4668:4682   */\n      add\n        /* \"#utility.yul\":4660:4682   */\n      swap1\n      pop\n        /* \"#utility.yul\":4557:4689   */\n      swap2\n      swap1\n      pop\n      jump\t// out\n        /* \"#utility.yul\":4695:4803   */\n    tag_162:\n        /* \"#utility.yul\":4772:4796   */\n      tag_247\n        /* \"#utility.yul\":4790:4795   */\n      dup2\n        /* \"#utility.yul\":4772:4796   */\n      tag_142\n      jump\t// in\n    tag_247:\n        /* \"#utility.yul\":4767:4770   */\n      dup3\n        /* \"#utility.yul\":4760:4797   */\n      mstore\n        /* \"#utility.yul\":4695:4803   */\n      pop\n      pop\n      jump\t// out\n        /* \"#utility.yul\":4809:4988   */\n    tag_163:\n        /* \"#utility.yul\":4878:4888   */\n      0x00\n        /* \"#utility.yul\":4899:4945   */\n      tag_249\n        /* \"#utility.yul\":4941:4944   */\n      dup4\n        /* \"#utility.yul\":4933:4939   */\n      dup4\n        /* \"#utility.yul\":4899:4945   */\n      tag_162\n      jump\t// in\n    tag_249:\n        /* \"#utility.yul\":4977:4981   */\n      0x20\n        /* \"#utility.yul\":4972:4975   */\n      dup4\n        /* \"#utility.yul\":4968:4982   */\n      add\n        /* \"#utility.yul\":4954:4982   */\n      swap1\n      pop\n        /* \"#utility.yul\":4809:4988   */\n      swap3\n      swap2\n      pop\n      pop\n      jump\t// out\n        /* \"#utility.yul\":4994:5107   */\n    tag_164:\n        /* \"#utility.yul\":5064:5068   */\n      0x00\n        /* \"#utility.yul\":5096:5100   */\n      0x20\n        /* \"#utility.yul\":5091:5094   */\n      dup3\n        /* \"#utility.yul\":5087:5101   */\n      add\n        /* \"#utility.yul\":5079:5101   */\n      swap1\n      pop\n        /* \"#utility.yul\":4994:5107   */\n      swap2\n      swap1\n      pop\n      jump\t// out\n        /* \"#utility.yul\":5143:5875   */\n    tag_165:\n        /* \"#utility.yul\":5262:5265   */\n      0x00\n        /* \"#utility.yul\":5291:5345   */\n      tag_252\n        /* \"#utility.yul\":5339:5344   */\n      dup3\n        /* \"#utility.yul\":5291:5345   */\n      tag_159\n      jump\t// in\n    tag_252:\n        /* \"#utility.yul\":5361:5447   */\n      tag_253\n        /* \"#utility.yul\":5440:5446   */\n      dup2\n        /* \"#utility.yul\":5435:5438   */\n      dup6\n        /* \"#utility.yul\":5361:5447   */\n      tag_160\n      jump\t// in\n    tag_253:\n        /* \"#utility.yul\":5354:5447   */\n      swap4\n      pop\n        /* \"#utility.yul\":5471:5527   */\n      tag_254\n        /* \"#utility.yul\":5521:5526   */\n      dup4\n        /* \"#utility.yul\":5471:5527   */\n      tag_161\n      jump\t// in\n    tag_254:\n        /* \"#utility.yul\":5550:5557   */\n      dup1\n        /* \"#utility.yul\":5581:5582   */\n      0x00\n        /* \"#utility.yul\":5566:5850   */\n    tag_255:\n        /* \"#utility.yul\":5591:5597   */\n      dup4\n        /* \"#utility.yul\":5588:5589   */\n      dup2\n        /* \"#utility.yul\":5585:5598   */\n      lt\n        /* \"#utility.yul\":5566:5850   */\n      iszero\n      tag_257\n      jumpi\n        /* \"#utility.yul\":5667:5673   */\n      dup2\n        /* \"#utility.yul\":5661:5674   */\n      mload\n        /* \"#utility.yul\":5694:5757   */\n      tag_258\n        /* \"#utility.yul\":5753:5756   */\n      dup9\n        /* \"#utility.yul\":5738:5751   */\n      dup3\n        /* \"#utility.yul\":5694:5757   */\n      tag_163\n      jump\t// in\n    tag_258:\n        /* \"#utility.yul\":5687:5757   */\n      swap8\n      pop\n        /* \"#utility.yul\":5780:5840   */\n      tag_259\n        /* \"#utility.yul\":5833:5839   */\n      dup4\n        /* \"#utility.yul\":5780:5840   */\n      tag_164\n      jump\t// in\n    tag_259:\n        /* \"#utility.yul\":5770:5840   */\n      swap3\n      pop\n        /* \"#utility.yul\":5626:5850   */\n      pop\n        /* \"#utility.yul\":5613:5614   */\n      0x01\n        /* \"#utility.yul\":5610:5611   */\n      dup2\n        /* \"#utility.yul\":5606:5615   */\n      add\n        /* \"#utility.yul\":5601:5615   */\n      swap1\n      pop\n        /* \"#utility.yul\":5566:5850   */\n      jump(tag_255)\n    tag_257:\n        /* \"#utility.yul\":5570:5584   */\n      pop\n        /* \"#utility.yul\":5866:5869   */\n      dup6\n        /* \"#utility.yul\":5859:5869   */\n      swap4\n      pop\n        /* \"#utility.yul\":5267:5875   */\n      pop\n      pop\n      pop\n        /* \"#utility.yul\":5143:5875   */\n      swap3\n      swap2\n      pop\n      pop\n      jump\t// out\n        /* \"#utility.yul\":5881:6254   */\n    tag_50:\n        /* \"#utility.yul\":6024:6028   */\n      0x00\n        /* \"#utility.yul\":6062:6064   */\n      0x20\n        /* \"#utility.yul\":6051:6060   */\n      dup3\n        /* \"#utility.yul\":6047:6065   */\n      add\n        /* \"#utility.yul\":6039:6065   */\n      swap1\n      pop\n        /* \"#utility.yul\":6111:6120   */\n      dup2\n        /* \"#utility.yul\":6105:6109   */\n      dup2\n        /* \"#utility.yul\":6101:6121   */\n      sub\n        /* \"#utility.yul\":6097:6098   */\n      0x00\n        /* \"#utility.yul\":6086:6095   */\n      dup4\n        /* \"#utility.yul\":6082:6099   */\n      add\n        /* \"#utility.yul\":6075:6122   */\n      mstore\n        /* \"#utility.yul\":6139:6247   */\n      tag_261\n        /* \"#utility.yul\":6242:6246   */\n      dup2\n        /* \"#utility.yul\":6233:6239   */\n      dup5\n        /* \"#utility.yul\":6139:6247   */\n      tag_165\n      jump\t// in\n    tag_261:\n        /* \"#utility.yul\":6131:6247   */\n      swap1\n      pop\n        /* \"#utility.yul\":5881:6254   */\n      swap3\n      swap2\n      pop\n      pop\n      jump\t// out\n        /* \"#utility.yul\":6260:6378   */\n    tag_166:\n        /* \"#utility.yul\":6347:6371   */\n      tag_263\n        /* \"#utility.yul\":6365:6370   */\n      dup2\n        /* \"#utility.yul\":6347:6371   */\n      tag_150\n      jump\t// in\n    tag_263:\n        /* \"#utility.yul\":6342:6345   */\n      dup3\n        /* \"#utility.yul\":6335:6372   */\n      mstore\n        /* \"#utility.yul\":6260:6378   */\n      pop\n      pop\n      jump\t// out\n        /* \"#utility.yul\":6384:6606   */\n    tag_54:\n        /* \"#utility.yul\":6477:6481   */\n      0x00\n        /* \"#utility.yul\":6515:6517   */\n      0x20\n        /* \"#utility.yul\":6504:6513   */\n      dup3\n        /* \"#utility.yul\":6500:6518   */\n      add\n        /* \"#utility.yul\":6492:6518   */\n      swap1\n      pop\n        /* \"#utility.yul\":6528:6599   */\n      tag_265\n        /* \"#utility.yul\":6596:6597   */\n      0x00\n        /* \"#utility.yul\":6585:6594   */\n      dup4\n        /* \"#utility.yul\":6581:6598   */\n      add\n        /* \"#utility.yul\":6572:6578   */\n      dup5\n        /* \"#utility.yul\":6528:6599   */\n      tag_166\n      jump\t// in\n    tag_265:\n        /* \"#utility.yul\":6384:6606   */\n      swap3\n      swap2\n      pop\n      pop\n      jump\t// out\n        /* \"#utility.yul\":6612:6792   */\n    tag_59:\n        /* \"#utility.yul\":6660:6737   */\n      0x4e487b7100000000000000000000000000000000000000000000000000000000\n        /* \"#utility.yul\":6657:6658   */\n      0x00\n        /* \"#utility.yul\":6650:6738   */\n      mstore\n        /* \"#utility.yul\":6757:6761   */\n      0x32\n        /* \"#utility.yul\":6754:6755   */\n      0x04\n        /* \"#utility.yul\":6747:6762   */\n      mstore\n        /* \"#utility.yul\":6781:6785   */\n      0x24\n        /* \"#utility.yul\":6778:6779   */\n      0x00\n        /* \"#utility.yul\":6771:6786   */\n      revert\n        /* \"#utility.yul\":6798:6967   */\n    tag_167:\n        /* \"#utility.yul\":6882:6893   */\n      0x00\n        /* \"#utility.yul\":6916:6922   */\n      dup3\n        /* \"#utility.yul\":6911:6914   */\n      dup3\n        /* \"#utility.yul\":6904:6923   */\n      mstore\n        /* \"#utility.yul\":6956:6960   */\n      0x20\n        /* \"#utility.yul\":6951:6954   */\n      dup3\n        /* \"#utility.yul\":6947:6961   */\n      add\n        /* \"#utility.yul\":6932:6961   */\n      swap1\n      pop\n        /* \"#utility.yul\":6798:6967   */\n      swap3\n      swap2\n      pop\n      pop\n      jump\t// out\n        /* \"#utility.yul\":6973:7200   */\n    tag_168:\n        /* \"#utility.yul\":7113:7147   */\n      0x446f61722061646d696e756c20706f6174652066616365206163656173746120\n        /* \"#utility.yul\":7109:7110   */\n      0x00\n        /* \"#utility.yul\":7101:7107   */\n      dup3\n        /* \"#utility.yul\":7097:7111   */\n      add\n        /* \"#utility.yul\":7090:7148   */\n      mstore\n        /* \"#utility.yul\":7182:7192   */\n      0x6f70657261746965000000000000000000000000000000000000000000000000\n        /* \"#utility.yul\":7177:7179   */\n      0x20\n        /* \"#utility.yul\":7169:7175   */\n      dup3\n        /* \"#utility.yul\":7165:7180   */\n      add\n        /* \"#utility.yul\":7158:7193   */\n      mstore\n        /* \"#utility.yul\":6973:7200   */\n      pop\n      jump\t// out\n        /* \"#utility.yul\":7206:7572   */\n    tag_169:\n        /* \"#utility.yul\":7348:7351   */\n      0x00\n        /* \"#utility.yul\":7369:7436   */\n      tag_270\n        /* \"#utility.yul\":7433:7435   */\n      0x28\n        /* \"#utility.yul\":7428:7431   */\n      dup4\n        /* \"#utility.yul\":7369:7436   */\n      tag_167\n      jump\t// in\n    tag_270:\n        /* \"#utility.yul\":7362:7436   */\n      swap2\n      pop\n        /* \"#utility.yul\":7445:7538   */\n      tag_271\n        /* \"#utility.yul\":7534:7537   */\n      dup3\n        /* \"#utility.yul\":7445:7538   */\n      tag_168\n      jump\t// in\n    tag_271:\n        /* \"#utility.yul\":7563:7565   */\n      0x40\n        /* \"#utility.yul\":7558:7561   */\n      dup3\n        /* \"#utility.yul\":7554:7566   */\n      add\n        /* \"#utility.yul\":7547:7566   */\n      swap1\n      pop\n        /* \"#utility.yul\":7206:7572   */\n      swap2\n      swap1\n      pop\n      jump\t// out\n        /* \"#utility.yul\":7578:7997   */\n    tag_64:\n        /* \"#utility.yul\":7744:7748   */\n      0x00\n        /* \"#utility.yul\":7782:7784   */\n      0x20\n        /* \"#utility.yul\":7771:7780   */\n      dup3\n        /* \"#utility.yul\":7767:7785   */\n      add\n        /* \"#utility.yul\":7759:7785   */\n      swap1\n      pop\n        /* \"#utility.yul\":7831:7840   */\n      dup2\n        /* \"#utility.yul\":7825:7829   */\n      dup2\n        /* \"#utility.yul\":7821:7841   */\n      sub\n        /* \"#utility.yul\":7817:7818   */\n      0x00\n        /* \"#utility.yul\":7806:7815   */\n      dup4\n        /* \"#utility.yul\":7802:7819   */\n      add\n        /* \"#utility.yul\":7795:7842   */\n      mstore\n        /* \"#utility.yul\":7859:7990   */\n      tag_273\n        /* \"#utility.yul\":7985:7989   */\n      dup2\n        /* \"#utility.yul\":7859:7990   */\n      tag_169\n      jump\t// in\n    tag_273:\n        /* \"#utility.yul\":7851:7990   */\n      swap1\n      pop\n        /* \"#utility.yul\":7578:7997   */\n      swap2\n      swap1\n      pop\n      jump\t// out\n        /* \"#utility.yul\":8003:8225   */\n    tag_170:\n        /* \"#utility.yul\":8143:8177   */\n      0x446f61722061646d696e756c20706f617465206164617567612063616e646964\n        /* \"#utility.yul\":8139:8140   */\n      0x00\n        /* \"#utility.yul\":8131:8137   */\n      dup3\n        /* \"#utility.yul\":8127:8141   */\n      add\n        /* \"#utility.yul\":8120:8178   */\n      mstore\n        /* \"#utility.yul\":8212:8217   */\n      0x6174690000000000000000000000000000000000000000000000000000000000\n        /* \"#utility.yul\":8207:8209   */\n      0x20\n        /* \"#utility.yul\":8199:8205   */\n      dup3\n        /* \"#utility.yul\":8195:8210   */\n      add\n        /* \"#utility.yul\":8188:8218   */\n      mstore\n        /* \"#utility.yul\":8003:8225   */\n      pop\n      jump\t// out\n        /* \"#utility.yul\":8231:8597   */\n    tag_171:\n        /* \"#utility.yul\":8373:8376   */\n      0x00\n        /* \"#utility.yul\":8394:8461   */\n      tag_276\n        /* \"#utility.yul\":8458:8460   */\n      0x23\n        /* \"#utility.yul\":8453:8456   */\n      dup4\n        /* \"#utility.yul\":8394:8461   */\n      tag_167\n      jump\t// in\n    tag_276:\n        /* \"#utility.yul\":8387:8461   */\n      swap2\n      pop\n        /* \"#utility.yul\":8470:8563   */\n      tag_277\n        /* \"#utility.yul\":8559:8562   */\n      dup3\n        /* \"#utility.yul\":8470:8563   */\n      tag_170\n      jump\t// in\n    tag_277:\n        /* \"#utility.yul\":8588:8590   */\n      0x40\n        /* \"#utility.yul\":8583:8586   */\n      dup3\n        /* \"#utility.yul\":8579:8591   */\n      add\n        /* \"#utility.yul\":8572:8591   */\n      swap1\n      pop\n        /* \"#utility.yul\":8231:8597   */\n      swap2\n      swap1\n      pop\n      jump\t// out\n        /* \"#utility.yul\":8603:9022   */\n    tag_68:\n        /* \"#utility.yul\":8769:8773   */\n      0x00\n        /* \"#utility.yul\":8807:8809   */\n      0x20\n        /* \"#utility.yul\":8796:8805   */\n      dup3\n        /* \"#utility.yul\":8792:8810   */\n      add\n        /* \"#utility.yul\":8784:8810   */\n      swap1\n      pop\n        /* \"#utility.yul\":8856:8865   */\n      dup2\n        /* \"#utility.yul\":8850:8854   */\n      dup2\n        /* \"#utility.yul\":8846:8866   */\n      sub\n        /* \"#utility.yul\":8842:8843   */\n      0x00\n        /* \"#utility.yul\":8831:8840   */\n      dup4\n        /* \"#utility.yul\":8827:8844   */\n      add\n        /* \"#utility.yul\":8820:8867   */\n      mstore\n        /* \"#utility.yul\":8884:9015   */\n      tag_279\n        /* \"#utility.yul\":9010:9014   */\n      dup2\n        /* \"#utility.yul\":8884:9015   */\n      tag_171\n      jump\t// in\n    tag_279:\n        /* \"#utility.yul\":8876:9015   */\n      swap1\n      pop\n        /* \"#utility.yul\":8603:9022   */\n      swap2\n      swap1\n      pop\n      jump\t// out\n        /* \"#utility.yul\":9028:9249   */\n    tag_172:\n        /* \"#utility.yul\":9168:9202   */\n      0x446f61722061646d696e756c20706f617465206461206163636573206c612076\n        /* \"#utility.yul\":9164:9165   */\n      0x00\n        /* \"#utility.yul\":9156:9162   */\n      dup3\n        /* \"#utility.yul\":9152:9166   */\n      add\n        /* \"#utility.yul\":9145:9203   */\n      mstore\n        /* \"#utility.yul\":9237:9241   */\n      0x6f74000000000000000000000000000000000000000000000000000000000000\n        /* \"#utility.yul\":9232:9234   */\n      0x20\n        /* \"#utility.yul\":9224:9230   */\n      dup3\n        /* \"#utility.yul\":9220:9235   */\n      add\n        /* \"#utility.yul\":9213:9242   */\n      mstore\n        /* \"#utility.yul\":9028:9249   */\n      pop\n      jump\t// out\n        /* \"#utility.yul\":9255:9621   */\n    tag_173:\n        /* \"#utility.yul\":9397:9400   */\n      0x00\n        /* \"#utility.yul\":9418:9485   */\n      tag_282\n        /* \"#utility.yul\":9482:9484   */\n      0x22\n        /* \"#utility.yul\":9477:9480   */\n      dup4\n        /* \"#utility.yul\":9418:9485   */\n      tag_167\n      jump\t// in\n    tag_282:\n        /* \"#utility.yul\":9411:9485   */\n      swap2\n      pop\n        /* \"#utility.yul\":9494:9587   */\n      tag_283\n        /* \"#utility.yul\":9583:9586   */\n      dup3\n        /* \"#utility.yul\":9494:9587   */\n      tag_172\n      jump\t// in\n    tag_283:\n        /* \"#utility.yul\":9612:9614   */\n      0x40\n        /* \"#utility.yul\":9607:9610   */\n      dup3\n        /* \"#utility.yul\":9603:9615   */\n      add\n        /* \"#utility.yul\":9596:9615   */\n      swap1\n      pop\n        /* \"#utility.yul\":9255:9621   */\n      swap2\n      swap1\n      pop\n      jump\t// out\n        /* \"#utility.yul\":9627:10046   */\n    tag_73:\n        /* \"#utility.yul\":9793:9797   */\n      0x00\n        /* \"#utility.yul\":9831:9833   */\n      0x20\n        /* \"#utility.yul\":9820:9829   */\n      dup3\n        /* \"#utility.yul\":9816:9834   */\n      add\n        /* \"#utility.yul\":9808:9834   */\n      swap1\n      pop\n        /* \"#utility.yul\":9880:9889   */\n      dup2\n        /* \"#utility.yul\":9874:9878   */\n      dup2\n        /* \"#utility.yul\":9870:9890   */\n      sub\n        /* \"#utility.yul\":9866:9867   */\n      0x00\n        /* \"#utility.yul\":9855:9864   */\n      dup4\n        /* \"#utility.yul\":9851:9868   */\n      add\n        /* \"#utility.yul\":9844:9891   */\n      mstore\n        /* \"#utility.yul\":9908:10039   */\n      tag_285\n        /* \"#utility.yul\":10034:10038   */\n      dup2\n        /* \"#utility.yul\":9908:10039   */\n      tag_173\n      jump\t// in\n    tag_285:\n        /* \"#utility.yul\":9900:10039   */\n      swap1\n      pop\n        /* \"#utility.yul\":9627:10046   */\n      swap2\n      swap1\n      pop\n      jump\t// out\n        /* \"#utility.yul\":10052:10274   */\n    tag_174:\n        /* \"#utility.yul\":10192:10226   */\n      0x566f74616e74756c2064656a6120612020696e72656769737472617420756e20\n        /* \"#utility.yul\":10188:10189   */\n      0x00\n        /* \"#utility.yul\":10180:10186   */\n      dup3\n        /* \"#utility.yul\":10176:10190   */\n      add\n        /* \"#utility.yul\":10169:10227   */\n      mstore\n        /* \"#utility.yul\":10261:10266   */\n      0x766f740000000000000000000000000000000000000000000000000000000000\n        /* \"#utility.yul\":10256:10258   */\n      0x20\n        /* \"#utility.yul\":10248:10254   */\n      dup3\n        /* \"#utility.yul\":10244:10259   */\n      add\n        /* \"#utility.yul\":10237:10267   */\n      mstore\n        /* \"#utility.yul\":10052:10274   */\n      pop\n      jump\t// out\n        /* \"#utility.yul\":10280:10646   */\n    tag_175:\n        /* \"#utility.yul\":10422:10425   */\n      0x00\n        /* \"#utility.yul\":10443:10510   */\n      tag_288\n        /* \"#utility.yul\":10507:10509   */\n      0x23\n        /* \"#utility.yul\":10502:10505   */\n      dup4\n        /* \"#utility.yul\":10443:10510   */\n      tag_167\n      jump\t// in\n    tag_288:\n        /* \"#utility.yul\":10436:10510   */\n      swap2\n      pop\n        /* \"#utility.yul\":10519:10612   */\n      tag_289\n        /* \"#utility.yul\":10608:10611   */\n      dup3\n        /* \"#utility.yul\":10519:10612   */\n      tag_174\n      jump\t// in\n    tag_289:\n        /* \"#utility.yul\":10637:10639   */\n      0x40\n        /* \"#utility.yul\":10632:10635   */\n      dup3\n        /* \"#utility.yul\":10628:10640   */\n      add\n        /* \"#utility.yul\":10621:10640   */\n      swap1\n      pop\n        /* \"#utility.yul\":10280:10646   */\n      swap2\n      swap1\n      pop\n      jump\t// out\n        /* \"#utility.yul\":10652:11071   */\n    tag_76:\n        /* \"#utility.yul\":10818:10822   */\n      0x00\n        /* \"#utility.yul\":10856:10858   */\n      0x20\n        /* \"#utility.yul\":10845:10854   */\n      dup3\n        /* \"#utility.yul\":10841:10859   */\n      add\n        /* \"#utility.yul\":10833:10859   */\n      swap1\n      pop\n        /* \"#utility.yul\":10905:10914   */\n      dup2\n        /* \"#utility.yul\":10899:10903   */\n      dup2\n        /* \"#utility.yul\":10895:10915   */\n      sub\n        /* \"#utility.yul\":10891:10892   */\n      0x00\n        /* \"#utility.yul\":10880:10889   */\n      dup4\n        /* \"#utility.yul\":10876:10893   */\n      add\n        /* \"#utility.yul\":10869:10916   */\n      mstore\n        /* \"#utility.yul\":10933:11064   */\n      tag_291\n        /* \"#utility.yul\":11059:11063   */\n      dup2\n        /* \"#utility.yul\":10933:11064   */\n      tag_175\n      jump\t// in\n    tag_291:\n        /* \"#utility.yul\":10925:11064   */\n      swap1\n      pop\n        /* \"#utility.yul\":10652:11071   */\n      swap2\n      swap1\n      pop\n      jump\t// out\n        /* \"#utility.yul\":11077:11252   */\n    tag_176:\n        /* \"#utility.yul\":11217:11244   */\n      0x41646d696e756c206120666f73742064656a6120736574617400000000000000\n        /* \"#utility.yul\":11213:11214   */\n      0x00\n        /* \"#utility.yul\":11205:11211   */\n      dup3\n        /* \"#utility.yul\":11201:11215   */\n      add\n        /* \"#utility.yul\":11194:11245   */\n      mstore\n        /* \"#utility.yul\":11077:11252   */\n      pop\n      jump\t// out\n        /* \"#utility.yul\":11258:11624   */\n    tag_177:\n        /* \"#utility.yul\":11400:11403   */\n      0x00\n        /* \"#utility.yul\":11421:11488   */\n      tag_294\n        /* \"#utility.yul\":11485:11487   */\n      0x19\n        /* \"#utility.yul\":11480:11483   */\n      dup4\n        /* \"#utility.yul\":11421:11488   */\n      tag_167\n      jump\t// in\n    tag_294:\n        /* \"#utility.yul\":11414:11488   */\n      swap2\n      pop\n        /* \"#utility.yul\":11497:11590   */\n      tag_295\n        /* \"#utility.yul\":11586:11589   */\n      dup3\n        /* \"#utility.yul\":11497:11590   */\n      tag_176\n      jump\t// in\n    tag_295:\n        /* \"#utility.yul\":11615:11617   */\n      0x20\n        /* \"#utility.yul\":11610:11613   */\n      dup3\n        /* \"#utility.yul\":11606:11618   */\n      add\n        /* \"#utility.yul\":11599:11618   */\n      swap1\n      pop\n        /* \"#utility.yul\":11258:11624   */\n      swap2\n      swap1\n      pop\n      jump\t// out\n        /* \"#utility.yul\":11630:12049   */\n    tag_81:\n        /* \"#utility.yul\":11796:11800   */\n      0x00\n        /* \"#utility.yul\":11834:11836   */\n      0x20\n        /* \"#utility.yul\":11823:11832   */\n      dup3\n        /* \"#utility.yul\":11819:11837   */\n      add\n        /* \"#utility.yul\":11811:11837   */\n      swap1\n      pop\n        /* \"#utility.yul\":11883:11892   */\n      dup2\n        /* \"#utility.yul\":11877:11881   */\n      dup2\n        /* \"#utility.yul\":11873:11893   */\n      sub\n        /* \"#utility.yul\":11869:11870   */\n      0x00\n        /* \"#utility.yul\":11858:11867   */\n      dup4\n        /* \"#utility.yul\":11854:11871   */\n      add\n        /* \"#utility.yul\":11847:11894   */\n      mstore\n        /* \"#utility.yul\":11911:12042   */\n      tag_297\n        /* \"#utility.yul\":12037:12041   */\n      dup2\n        /* \"#utility.yul\":11911:12042   */\n      tag_177\n      jump\t// in\n    tag_297:\n        /* \"#utility.yul\":11903:12042   */\n      swap1\n      pop\n        /* \"#utility.yul\":11630:12049   */\n      swap2\n      swap1\n      pop\n      jump\t// out\n        /* \"#utility.yul\":12055:12153   */\n    tag_178:\n        /* \"#utility.yul\":12106:12112   */\n      0x00\n        /* \"#utility.yul\":12140:12145   */\n      dup2\n        /* \"#utility.yul\":12134:12146   */\n      mload\n        /* \"#utility.yul\":12124:12146   */\n      swap1\n      pop\n        /* \"#utility.yul\":12055:12153   */\n      swap2\n      swap1\n      pop\n      jump\t// out\n        /* \"#utility.yul\":12159:12306   */\n    tag_179:\n        /* \"#utility.yul\":12260:12271   */\n      0x00\n        /* \"#utility.yul\":12297:12300   */\n      dup2\n        /* \"#utility.yul\":12282:12300   */\n      swap1\n      pop\n        /* \"#utility.yul\":12159:12306   */\n      swap3\n      swap2\n      pop\n      pop\n      jump\t// out\n        /* \"#utility.yul\":12312:12558   */\n    tag_180:\n        /* \"#utility.yul\":12393:12394   */\n      0x00\n        /* \"#utility.yul\":12403:12516   */\n    tag_301:\n        /* \"#utility.yul\":12417:12423   */\n      dup4\n        /* \"#utility.yul\":12414:12415   */\n      dup2\n        /* \"#utility.yul\":12411:12424   */\n      lt\n        /* \"#utility.yul\":12403:12516   */\n      iszero\n      tag_303\n      jumpi\n        /* \"#utility.yul\":12502:12503   */\n      dup1\n        /* \"#utility.yul\":12497:12500   */\n      dup3\n        /* \"#utility.yul\":12493:12504   */\n      add\n        /* \"#utility.yul\":12487:12505   */\n      mload\n        /* \"#utility.yul\":12483:12484   */\n      dup2\n        /* \"#utility.yul\":12478:12481   */\n      dup5\n        /* \"#utility.yul\":12474:12485   */\n      add\n        /* \"#utility.yul\":12467:12506   */\n      mstore\n        /* \"#utility.yul\":12439:12441   */\n      0x20\n        /* \"#utility.yul\":12436:12437   */\n      dup2\n        /* \"#utility.yul\":12432:12442   */\n      add\n        /* \"#utility.yul\":12427:12442   */\n      swap1\n      pop\n        /* \"#utility.yul\":12403:12516   */\n      jump(tag_301)\n    tag_303:\n        /* \"#utility.yul\":12550:12551   */\n      0x00\n        /* \"#utility.yul\":12541:12547   */\n      dup5\n        /* \"#utility.yul\":12536:12539   */\n      dup5\n        /* \"#utility.yul\":12532:12548   */\n      add\n        /* \"#utility.yul\":12525:12552   */\n      mstore\n        /* \"#utility.yul\":12374:12558   */\n      pop\n        /* \"#utility.yul\":12312:12558   */\n      pop\n      pop\n      pop\n      jump\t// out\n        /* \"#utility.yul\":12564:12950   */\n    tag_181:\n        /* \"#utility.yul\":12668:12671   */\n      0x00\n        /* \"#utility.yul\":12696:12734   */\n      tag_305\n        /* \"#utility.yul\":12728:12733   */\n      dup3\n        /* \"#utility.yul\":12696:12734   */\n      tag_178\n      jump\t// in\n    tag_305:\n        /* \"#utility.yul\":12750:12838   */\n      tag_306\n        /* \"#utility.yul\":12831:12837   */\n      dup2\n        /* \"#utility.yul\":12826:12829   */\n      dup6\n        /* \"#utility.yul\":12750:12838   */\n      tag_179\n      jump\t// in\n    tag_306:\n        /* \"#utility.yul\":12743:12838   */\n      swap4\n      pop\n        /* \"#utility.yul\":12847:12912   */\n      tag_307\n        /* \"#utility.yul\":12905:12911   */\n      dup2\n        /* \"#utility.yul\":12900:12903   */\n      dup6\n        /* \"#utility.yul\":12893:12897   */\n      0x20\n        /* \"#utility.yul\":12886:12891   */\n      dup7\n        /* \"#utility.yul\":12882:12898   */\n      add\n        /* \"#utility.yul\":12847:12912   */\n      tag_180\n      jump\t// in\n    tag_307:\n        /* \"#utility.yul\":12937:12943   */\n      dup1\n        /* \"#utility.yul\":12932:12935   */\n      dup5\n        /* \"#utility.yul\":12928:12944   */\n      add\n        /* \"#utility.yul\":12921:12944   */\n      swap2\n      pop\n        /* \"#utility.yul\":12672:12950   */\n      pop\n        /* \"#utility.yul\":12564:12950   */\n      swap3\n      swap2\n      pop\n      pop\n      jump\t// out\n        /* \"#utility.yul\":12956:13227   */\n    tag_84:\n        /* \"#utility.yul\":13086:13089   */\n      0x00\n        /* \"#utility.yul\":13108:13201   */\n      tag_309\n        /* \"#utility.yul\":13197:13200   */\n      dup3\n        /* \"#utility.yul\":13188:13194   */\n      dup5\n        /* \"#utility.yul\":13108:13201   */\n      tag_181\n      jump\t// in\n    tag_309:\n        /* \"#utility.yul\":13101:13201   */\n      swap2\n      pop\n        /* \"#utility.yul\":13218:13221   */\n      dup2\n        /* \"#utility.yul\":13211:13221   */\n      swap1\n      pop\n        /* \"#utility.yul\":12956:13227   */\n      swap3\n      swap2\n      pop\n      pop\n      jump\t// out\n        /* \"#utility.yul\":13233:13401   */\n    tag_182:\n        /* \"#utility.yul\":13373:13393   */\n      0x5472616e73616374696f6e206661696c65640000000000000000000000000000\n        /* \"#utility.yul\":13369:13370   */\n      0x00\n        /* \"#utility.yul\":13361:13367   */\n      dup3\n        /* \"#utility.yul\":13357:13371   */\n      add\n        /* \"#utility.yul\":13350:13394   */\n      mstore\n        /* \"#utility.yul\":13233:13401   */\n      pop\n      jump\t// out\n        /* \"#utility.yul\":13407:13773   */\n    tag_183:\n        /* \"#utility.yul\":13549:13552   */\n      0x00\n        /* \"#utility.yul\":13570:13637   */\n      tag_312\n        /* \"#utility.yul\":13634:13636   */\n      0x12\n        /* \"#utility.yul\":13629:13632   */\n      dup4\n        /* \"#utility.yul\":13570:13637   */\n      tag_167\n      jump\t// in\n    tag_312:\n        /* \"#utility.yul\":13563:13637   */\n      swap2\n      pop\n        /* \"#utility.yul\":13646:13739   */\n      tag_313\n        /* \"#utility.yul\":13735:13738   */\n      dup3\n        /* \"#utility.yul\":13646:13739   */\n      tag_182\n      jump\t// in\n    tag_313:\n        /* \"#utility.yul\":13764:13766   */\n      0x20\n        /* \"#utility.yul\":13759:13762   */\n      dup3\n        /* \"#utility.yul\":13755:13767   */\n      add\n        /* \"#utility.yul\":13748:13767   */\n      swap1\n      pop\n        /* \"#utility.yul\":13407:13773   */\n      swap2\n      swap1\n      pop\n      jump\t// out\n        /* \"#utility.yul\":13779:14198   */\n    tag_90:\n        /* \"#utility.yul\":13945:13949   */\n      0x00\n        /* \"#utility.yul\":13983:13985   */\n      0x20\n        /* \"#utility.yul\":13972:13981   */\n      dup3\n        /* \"#utility.yul\":13968:13986   */\n      add\n        /* \"#utility.yul\":13960:13986   */\n      swap1\n      pop\n        /* \"#utility.yul\":14032:14041   */\n      dup2\n        /* \"#utility.yul\":14026:14030   */\n      dup2\n        /* \"#utility.yul\":14022:14042   */\n      sub\n        /* \"#utility.yul\":14018:14019   */\n      0x00\n        /* \"#utility.yul\":14007:14016   */\n      dup4\n        /* \"#utility.yul\":14003:14020   */\n      add\n        /* \"#utility.yul\":13996:14043   */\n      mstore\n        /* \"#utility.yul\":14060:14191   */\n      tag_315\n        /* \"#utility.yul\":14186:14190   */\n      dup2\n        /* \"#utility.yul\":14060:14191   */\n      tag_183\n      jump\t// in\n    tag_315:\n        /* \"#utility.yul\":14052:14191   */\n      swap1\n      pop\n        /* \"#utility.yul\":13779:14198   */\n      swap2\n      swap1\n      pop\n      jump\t// out\n        /* \"#utility.yul\":14204:14374   */\n    tag_184:\n        /* \"#utility.yul\":14344:14366   */\n      0x4e752061726520647265707420646520766f7421000000000000000000000000\n        /* \"#utility.yul\":14340:14341   */\n      0x00\n        /* \"#utility.yul\":14332:14338   */\n      dup3\n        /* \"#utility.yul\":14328:14342   */\n      add\n        /* \"#utility.yul\":14321:14367   */\n      mstore\n        /* \"#utility.yul\":14204:14374   */\n      pop\n      jump\t// out\n        /* \"#utility.yul\":14380:14746   */\n    tag_185:\n        /* \"#utility.yul\":14522:14525   */\n      0x00\n        /* \"#utility.yul\":14543:14610   */\n      tag_318\n        /* \"#utility.yul\":14607:14609   */\n      0x14\n        /* \"#utility.yul\":14602:14605   */\n      dup4\n        /* \"#utility.yul\":14543:14610   */\n      tag_167\n      jump\t// in\n    tag_318:\n        /* \"#utility.yul\":14536:14610   */\n      swap2\n      pop\n        /* \"#utility.yul\":14619:14712   */\n      tag_319\n        /* \"#utility.yul\":14708:14711   */\n      dup3\n        /* \"#utility.yul\":14619:14712   */\n      tag_184\n      jump\t// in\n    tag_319:\n        /* \"#utility.yul\":14737:14739   */\n      0x20\n        /* \"#utility.yul\":14732:14735   */\n      dup3\n        /* \"#utility.yul\":14728:14740   */\n      add\n        /* \"#utility.yul\":14721:14740   */\n      swap1\n      pop\n        /* \"#utility.yul\":14380:14746   */\n      swap2\n      swap1\n      pop\n      jump\t// out\n        /* \"#utility.yul\":14752:15171   */\n    tag_94:\n        /* \"#utility.yul\":14918:14922   */\n      0x00\n        /* \"#utility.yul\":14956:14958   */\n      0x20\n        /* \"#utility.yul\":14945:14954   */\n      dup3\n        /* \"#utility.yul\":14941:14959   */\n      add\n        /* \"#utility.yul\":14933:14959   */\n      swap1\n      pop\n        /* \"#utility.yul\":15005:15014   */\n      dup2\n        /* \"#utility.yul\":14999:15003   */\n      dup2\n        /* \"#utility.yul\":14995:15015   */\n      sub\n        /* \"#utility.yul\":14991:14992   */\n      0x00\n        /* \"#utility.yul\":14980:14989   */\n      dup4\n        /* \"#utility.yul\":14976:14993   */\n      add\n        /* \"#utility.yul\":14969:15016   */\n      mstore\n        /* \"#utility.yul\":15033:15164   */\n      tag_321\n        /* \"#utility.yul\":15159:15163   */\n      dup2\n        /* \"#utility.yul\":15033:15164   */\n      tag_185\n      jump\t// in\n    tag_321:\n        /* \"#utility.yul\":15025:15164   */\n      swap1\n      pop\n        /* \"#utility.yul\":14752:15171   */\n      swap2\n      swap1\n      pop\n      jump\t// out\n        /* \"#utility.yul\":15177:15339   */\n    tag_186:\n        /* \"#utility.yul\":15317:15331   */\n      0x44656a61206120766f7461740000000000000000000000000000000000000000\n        /* \"#utility.yul\":15313:15314   */\n      0x00\n        /* \"#utility.yul\":15305:15311   */\n      dup3\n        /* \"#utility.yul\":15301:15315   */\n      add\n        /* \"#utility.yul\":15294:15332   */\n      mstore\n        /* \"#utility.yul\":15177:15339   */\n      pop\n      jump\t// out\n        /* \"#utility.yul\":15345:15711   */\n    tag_187:\n        /* \"#utility.yul\":15487:15490   */\n      0x00\n        /* \"#utility.yul\":15508:15575   */\n      tag_324\n        /* \"#utility.yul\":15572:15574   */\n      0x0c\n        /* \"#utility.yul\":15567:15570   */\n      dup4\n        /* \"#utility.yul\":15508:15575   */\n      tag_167\n      jump\t// in\n    tag_324:\n        /* \"#utility.yul\":15501:15575   */\n      swap2\n      pop\n        /* \"#utility.yul\":15584:15677   */\n      tag_325\n        /* \"#utility.yul\":15673:15676   */\n      dup3\n        /* \"#utility.yul\":15584:15677   */\n      tag_186\n      jump\t// in\n    tag_325:\n        /* \"#utility.yul\":15702:15704   */\n      0x20\n        /* \"#utility.yul\":15697:15700   */\n      dup3\n        /* \"#utility.yul\":15693:15705   */\n      add\n        /* \"#utility.yul\":15686:15705   */\n      swap1\n      pop\n        /* \"#utility.yul\":15345:15711   */\n      swap2\n      swap1\n      pop\n      jump\t// out\n        /* \"#utility.yul\":15717:16136   */\n    tag_97:\n        /* \"#utility.yul\":15883:15887   */\n      0x00\n        /* \"#utility.yul\":15921:15923   */\n      0x20\n        /* \"#utility.yul\":15910:15919   */\n      dup3\n        /* \"#utility.yul\":15906:15924   */\n      add\n        /* \"#utility.yul\":15898:15924   */\n      swap1\n      pop\n        /* \"#utility.yul\":15970:15979   */\n      dup2\n        /* \"#utility.yul\":15964:15968   */\n      dup2\n        /* \"#utility.yul\":15960:15980   */\n      sub\n        /* \"#utility.yul\":15956:15957   */\n      0x00\n        /* \"#utility.yul\":15945:15954   */\n      dup4\n        /* \"#utility.yul\":15941:15958   */\n      add\n        /* \"#utility.yul\":15934:15981   */\n      mstore\n        /* \"#utility.yul\":15998:16129   */\n      tag_327\n        /* \"#utility.yul\":16124:16128   */\n      dup2\n        /* \"#utility.yul\":15998:16129   */\n      tag_187\n      jump\t// in\n    tag_327:\n        /* \"#utility.yul\":15990:16129   */\n      swap1\n      pop\n        /* \"#utility.yul\":15717:16136   */\n      swap2\n      swap1\n      pop\n      jump\t// out\n        /* \"#utility.yul\":16142:16322   */\n    tag_188:\n        /* \"#utility.yul\":16190:16267   */\n      0x4e487b7100000000000000000000000000000000000000000000000000000000\n        /* \"#utility.yul\":16187:16188   */\n      0x00\n        /* \"#utility.yul\":16180:16268   */\n      mstore\n        /* \"#utility.yul\":16287:16291   */\n      0x11\n        /* \"#utility.yul\":16284:16285   */\n      0x04\n        /* \"#utility.yul\":16277:16292   */\n      mstore\n        /* \"#utility.yul\":16311:16315   */\n      0x24\n        /* \"#utility.yul\":16308:16309   */\n      0x00\n        /* \"#utility.yul\":16301:16316   */\n      revert\n        /* \"#utility.yul\":16328:16519   */\n    tag_102:\n        /* \"#utility.yul\":16368:16371   */\n      0x00\n        /* \"#utility.yul\":16387:16407   */\n      tag_330\n        /* \"#utility.yul\":16405:16406   */\n      dup3\n        /* \"#utility.yul\":16387:16407   */\n      tag_153\n      jump\t// in\n    tag_330:\n        /* \"#utility.yul\":16382:16407   */\n      swap2\n      pop\n        /* \"#utility.yul\":16421:16441   */\n      tag_331\n        /* \"#utility.yul\":16439:16440   */\n      dup4\n        /* \"#utility.yul\":16421:16441   */\n      tag_153\n      jump\t// in\n    tag_331:\n        /* \"#utility.yul\":16416:16441   */\n      swap3\n      pop\n        /* \"#utility.yul\":16464:16465   */\n      dup3\n        /* \"#utility.yul\":16461:16462   */\n      dup3\n        /* \"#utility.yul\":16457:16466   */\n      add\n        /* \"#utility.yul\":16450:16466   */\n      swap1\n      pop\n        /* \"#utility.yul\":16485:16488   */\n      dup1\n        /* \"#utility.yul\":16482:16483   */\n      dup3\n        /* \"#utility.yul\":16479:16489   */\n      gt\n        /* \"#utility.yul\":16476:16512   */\n      iszero\n      tag_332\n      jumpi\n        /* \"#utility.yul\":16492:16510   */\n      tag_333\n      tag_188\n      jump\t// in\n    tag_333:\n        /* \"#utility.yul\":16476:16512   */\n    tag_332:\n        /* \"#utility.yul\":16328:16519   */\n      swap3\n      swap2\n      pop\n      pop\n      jump\t// out\n        /* \"#utility.yul\":16525:16758   */\n    tag_125:\n        /* \"#utility.yul\":16564:16567   */\n      0x00\n        /* \"#utility.yul\":16587:16611   */\n      tag_335\n        /* \"#utility.yul\":16605:16610   */\n      dup3\n        /* \"#utility.yul\":16587:16611   */\n      tag_153\n      jump\t// in\n    tag_335:\n        /* \"#utility.yul\":16578:16611   */\n      swap2\n      pop\n        /* \"#utility.yul\":16633:16699   */\n      0xffffffffffffffffffffffffffffffffffffffffffffffffffffffffffffffff\n        /* \"#utility.yul\":16626:16631   */\n      dup3\n        /* \"#utility.yul\":16623:16700   */\n      sub\n        /* \"#utility.yul\":16620:16723   */\n      tag_336\n      jumpi\n        /* \"#utility.yul\":16703:16721   */\n      tag_337\n      tag_188\n      jump\t// in\n    tag_337:\n        /* \"#utility.yul\":16620:16723   */\n    tag_336:\n        /* \"#utility.yul\":16750:16751   */\n      0x01\n        /* \"#utility.yul\":16743:16748   */\n      dup3\n        /* \"#utility.yul\":16739:16752   */\n      add\n        /* \"#utility.yul\":16732:16752   */\n      swap1\n      pop\n        /* \"#utility.yul\":16525:16758   */\n      swap2\n      swap1\n      pop\n      jump\t// out\n        /* \"#utility.yul\":16764:16944   */\n    tag_131:\n        /* \"#utility.yul\":16812:16889   */\n      0x4e487b7100000000000000000000000000000000000000000000000000000000\n        /* \"#utility.yul\":16809:16810   */\n      0x00\n        /* \"#utility.yul\":16802:16890   */\n      mstore\n        /* \"#utility.yul\":16909:16913   */\n      0x41\n        /* \"#utility.yul\":16906:16907   */\n      0x04\n        /* \"#utility.yul\":16899:16914   */\n      mstore\n        /* \"#utility.yul\":16933:16937   */\n      0x24\n        /* \"#utility.yul\":16930:16931   */\n      0x00\n        /* \"#utility.yul\":16923:16938   */\n      revert\n\n    auxdata: 0xa2646970667358221220849e64597d39846fa8652d02b51483d873c5e3535f02ab87022456419a72bf7164736f6c63430008120033\n}\n",
				"bytecode": {
					"linkReferences": {},
					"object": "608060405234801561001057600080fd5b50611516806100206000396000f3fe608060405234801561001057600080fd5b506004361061009e5760003560e01c8063b18e2cbb11610066578063b18e2cbb14610147578063e6f4a7c814610163578063f1c78b4914610181578063f211663a146101b2578063f851a440146101d05761009e565b80630e1514b2146100a3578063230d6ed8146100c15780633b2f6065146100dd578063545f53571461010f578063704b6c021461012b575b600080fd5b6100ab6101ee565b6040516100b89190610c30565b60405180910390f35b6100db60048036038101906100d69190610c7c565b610221565b005b6100f760048036038101906100f29190610d07565b61039b565b60405161010693929190610d68565b60405180910390f35b61012960048036038101906101249190610d07565b6103d2565b005b61014560048036038101906101409190610d07565b61058b565b005b610161600480360381019061015c9190610dcb565b6107c8565b005b61016b610a72565b6040516101789190610df8565b60405180910390f35b61019b60048036038101906101969190610dcb565b610afa565b6040516101a9929190610e13565b60405180910390f35b6101ba610b2e565b6040516101c79190610efa565b60405180910390f35b6101d8610bf1565b6040516101e59190610f2b565b60405180910390f35b6000806101f9610a72565b8154811061020a57610209610f46565b5b906000526020600020906002020160000154905090565b600260009054906101000a900473ffffffffffffffffffffffffffffffffffffffff1673ffffffffffffffffffffffffffffffffffffffff163373ffffffffffffffffffffffffffffffffffffffff16146102b1576040517f08c379a00000000000000000000000000000000000000000000000000000000081526004016102a890610ff8565b60405180910390fd5b600260009054906101000a900473ffffffffffffffffffffffffffffffffffffffff1673ffffffffffffffffffffffffffffffffffffffff163373ffffffffffffffffffffffffffffffffffffffff1614610341576040517f08c379a00000000000000000000000000000000000000000000000000000000081526004016103389061108a565b60405180910390fd5b60006040518060400160405280838152602001600081525090806001815401808255809150506001900390600052602060002090600202016000909190919091506000820151816000015560208201518160010155505050565b60016020528060005260406000206000915090508060000154908060010160009054906101000a900460ff16908060020154905083565b600260009054906101000a900473ffffffffffffffffffffffffffffffffffffffff1673ffffffffffffffffffffffffffffffffffffffff163373ffffffffffffffffffffffffffffffffffffffff1614610462576040517f08c379a00000000000000000000000000000000000000000000000000000000081526004016104599061111c565b60405180910390fd5b600160008273ffffffffffffffffffffffffffffffffffffffff1673ffffffffffffffffffffffffffffffffffffffff16815260200190815260200160002060010160009054906101000a900460ff16156104f2576040517f08c379a00000000000000000000000000000000000000000000000000000000081526004016104e9906111ae565b60405180910390fd5b6000600160008373ffffffffffffffffffffffffffffffffffffffff1673ffffffffffffffffffffffffffffffffffffffff168152602001908152602001600020600201541461054157600080fd5b60018060008373ffffffffffffffffffffffffffffffffffffffff1673ffffffffffffffffffffffffffffffffffffffff1681526020019081526020016000206002018190555050565b600073ffffffffffffffffffffffffffffffffffffffff16600260009054906101000a900473ffffffffffffffffffffffffffffffffffffffff1673ffffffffffffffffffffffffffffffffffffffff161461061c576040517f08c379a00000000000000000000000000000000000000000000000000000000081526004016106139061121a565b60405180910390fd5b80600260006101000a81548173ffffffffffffffffffffffffffffffffffffffff021916908373ffffffffffffffffffffffffffffffffffffffff1602179055506000600260009054906101000a900473ffffffffffffffffffffffffffffffffffffffff166040516024016106929190610f2b565b6040516020818303038152906040527fb18e2cbb000000000000000000000000000000000000000000000000000000007bffffffffffffffffffffffffffffffffffffffffffffffffffffffff19166020820180517bffffffffffffffffffffffffffffffffffffffffffffffffffffffff8381831617835250505050905060003373ffffffffffffffffffffffffffffffffffffffff1660005a908460405161073c91906112ab565b600060405180830381858888f193505050503d806000811461077a576040519150601f19603f3d011682016040523d82523d6000602084013e61077f565b606091505b50509050806107c3576040517f08c379a00000000000000000000000000000000000000000000000000000000081526004016107ba9061130e565b60405180910390fd5b505050565b6000600160003373ffffffffffffffffffffffffffffffffffffffff1673ffffffffffffffffffffffffffffffffffffffff16815260200190815260200160002090506000816002015403610852576040517f08c379a00000000000000000000000000000000000000000000000000000000081526004016108499061137a565b60405180910390fd5b8060010160009054906101000a900460ff16156108a4576040517f08c379a000000000000000000000000000000000000000000000000000000000815260040161089b906113e6565b60405180910390fd5b60018160010160006101000a81548160ff0219169083151502179055508181600001819055508060020154600083815481106108e3576108e2610f46565b5b9060005260206000209060020201600101546108ff9190611435565b6000838154811061091357610912610f46565b5b90600052602060002090600202016001018190555060008260405160240161093b9190610df8565b6040516020818303038152906040527fb18e2cbb000000000000000000000000000000000000000000000000000000007bffffffffffffffffffffffffffffffffffffffffffffffffffffffff19166020820180517bffffffffffffffffffffffffffffffffffffffffffffffffffffffff8381831617835250505050905060003373ffffffffffffffffffffffffffffffffffffffff1660005a90846040516109e591906112ab565b600060405180830381858888f193505050503d8060008114610a23576040519150601f19603f3d011682016040523d82523d6000602084013e610a28565b606091505b5050905080610a6c576040517f08c379a0000000000000000000000000000000000000000000000000000000008152600401610a639061130e565b60405180910390fd5b50505050565b6000806000905060005b600080549050811015610af5578160008281548110610a9e57610a9d610f46565b5b9060005260206000209060020201600101541115610ae25760008181548110610aca57610ac9610f46565b5b90600052602060002090600202016001015491508092505b8080610aed90611469565b915050610a7c565b505090565b60008181548110610b0a57600080fd5b90600052602060002090600202016000915090508060000154908060010154905082565b60606000808054905067ffffffffffffffff811115610b5057610b4f6114b1565b5b604051908082528060200260200182016040528015610b7e5781602001602082028036833780820191505090505b50905060005b600080549050811015610be95760008181548110610ba557610ba4610f46565b5b906000526020600020906002020160000154828281518110610bca57610bc9610f46565b5b6020026020010181815250508080610be190611469565b915050610b84565b508091505090565b600260009054906101000a900473ffffffffffffffffffffffffffffffffffffffff1681565b6000819050919050565b610c2a81610c17565b82525050565b6000602082019050610c456000830184610c21565b92915050565b600080fd5b610c5981610c17565b8114610c6457600080fd5b50565b600081359050610c7681610c50565b92915050565b600060208284031215610c9257610c91610c4b565b5b6000610ca084828501610c67565b91505092915050565b600073ffffffffffffffffffffffffffffffffffffffff82169050919050565b6000610cd482610ca9565b9050919050565b610ce481610cc9565b8114610cef57600080fd5b50565b600081359050610d0181610cdb565b92915050565b600060208284031215610d1d57610d1c610c4b565b5b6000610d2b84828501610cf2565b91505092915050565b6000819050919050565b610d4781610d34565b82525050565b60008115159050919050565b610d6281610d4d565b82525050565b6000606082019050610d7d6000830186610d3e565b610d8a6020830185610d59565b610d976040830184610d3e565b949350505050565b610da881610d34565b8114610db357600080fd5b50565b600081359050610dc581610d9f565b92915050565b600060208284031215610de157610de0610c4b565b5b6000610def84828501610db6565b91505092915050565b6000602082019050610e0d6000830184610d3e565b92915050565b6000604082019050610e286000830185610c21565b610e356020830184610d3e565b9392505050565b600081519050919050565b600082825260208201905092915050565b6000819050602082019050919050565b610e7181610c17565b82525050565b6000610e838383610e68565b60208301905092915050565b6000602082019050919050565b6000610ea782610e3c565b610eb18185610e47565b9350610ebc83610e58565b8060005b83811015610eed578151610ed48882610e77565b9750610edf83610e8f565b925050600181019050610ec0565b5085935050505092915050565b60006020820190508181036000830152610f148184610e9c565b905092915050565b610f2581610cc9565b82525050565b6000602082019050610f406000830184610f1c565b92915050565b7f4e487b7100000000000000000000000000000000000000000000000000000000600052603260045260246000fd5b600082825260208201905092915050565b7f446f61722061646d696e756c20706f617465206661636520616365617374612060008201527f6f70657261746965000000000000000000000000000000000000000000000000602082015250565b6000610fe2602883610f75565b9150610fed82610f86565b604082019050919050565b6000602082019050818103600083015261101181610fd5565b9050919050565b7f446f61722061646d696e756c20706f617465206164617567612063616e64696460008201527f6174690000000000000000000000000000000000000000000000000000000000602082015250565b6000611074602383610f75565b915061107f82611018565b604082019050919050565b600060208201905081810360008301526110a381611067565b9050919050565b7f446f61722061646d696e756c20706f617465206461206163636573206c61207660008201527f6f74000000000000000000000000000000000000000000000000000000000000602082015250565b6000611106602283610f75565b9150611111826110aa565b604082019050919050565b60006020820190508181036000830152611135816110f9565b9050919050565b7f566f74616e74756c2064656a6120612020696e72656769737472617420756e2060008201527f766f740000000000000000000000000000000000000000000000000000000000602082015250565b6000611198602383610f75565b91506111a38261113c565b604082019050919050565b600060208201905081810360008301526111c78161118b565b9050919050565b7f41646d696e756c206120666f73742064656a6120736574617400000000000000600082015250565b6000611204601983610f75565b915061120f826111ce565b602082019050919050565b60006020820190508181036000830152611233816111f7565b9050919050565b600081519050919050565b600081905092915050565b60005b8381101561126e578082015181840152602081019050611253565b60008484015250505050565b60006112858261123a565b61128f8185611245565b935061129f818560208601611250565b80840191505092915050565b60006112b7828461127a565b915081905092915050565b7f5472616e73616374696f6e206661696c65640000000000000000000000000000600082015250565b60006112f8601283610f75565b9150611303826112c2565b602082019050919050565b60006020820190508181036000830152611327816112eb565b9050919050565b7f4e752061726520647265707420646520766f7421000000000000000000000000600082015250565b6000611364601483610f75565b915061136f8261132e565b602082019050919050565b6000602082019050818103600083015261139381611357565b9050919050565b7f44656a61206120766f7461740000000000000000000000000000000000000000600082015250565b60006113d0600c83610f75565b91506113db8261139a565b602082019050919050565b600060208201905081810360008301526113ff816113c3565b9050919050565b7f4e487b7100000000000000000000000000000000000000000000000000000000600052601160045260246000fd5b600061144082610d34565b915061144b83610d34565b925082820190508082111561146357611462611406565b5b92915050565b600061147482610d34565b91507fffffffffffffffffffffffffffffffffffffffffffffffffffffffffffffffff82036114a6576114a5611406565b5b600182019050919050565b7f4e487b7100000000000000000000000000000000000000000000000000000000600052604160045260246000fdfea2646970667358221220849e64597d39846fa8652d02b51483d873c5e3535f02ab87022456419a72bf7164736f6c63430008120033",
					"opcodes": "PUSH1 0x80 PUSH1 0x40 MSTORE CALLVALUE DUP1 ISZERO PUSH2 0x10 JUMPI PUSH1 0x0 DUP1 REVERT JUMPDEST POP PUSH2 0x1516 DUP1 PUSH2 0x20 PUSH1 0x0 CODECOPY PUSH1 0x0 RETURN INVALID PUSH1 0x80 PUSH1 0x40 MSTORE CALLVALUE DUP1 ISZERO PUSH2 0x10 JUMPI PUSH1 0x0 DUP1 REVERT JUMPDEST POP PUSH1 0x4 CALLDATASIZE LT PUSH2 0x9E JUMPI PUSH1 0x0 CALLDATALOAD PUSH1 0xE0 SHR DUP1 PUSH4 0xB18E2CBB GT PUSH2 0x66 JUMPI DUP1 PUSH4 0xB18E2CBB EQ PUSH2 0x147 JUMPI DUP1 PUSH4 0xE6F4A7C8 EQ PUSH2 0x163 JUMPI DUP1 PUSH4 0xF1C78B49 EQ PUSH2 0x181 JUMPI DUP1 PUSH4 0xF211663A EQ PUSH2 0x1B2 JUMPI DUP1 PUSH4 0xF851A440 EQ PUSH2 0x1D0 JUMPI PUSH2 0x9E JUMP JUMPDEST DUP1 PUSH4 0xE1514B2 EQ PUSH2 0xA3 JUMPI DUP1 PUSH4 0x230D6ED8 EQ PUSH2 0xC1 JUMPI DUP1 PUSH4 0x3B2F6065 EQ PUSH2 0xDD JUMPI DUP1 PUSH4 0x545F5357 EQ PUSH2 0x10F JUMPI DUP1 PUSH4 0x704B6C02 EQ PUSH2 0x12B JUMPI JUMPDEST PUSH1 0x0 DUP1 REVERT JUMPDEST PUSH2 0xAB PUSH2 0x1EE JUMP JUMPDEST PUSH1 0x40 MLOAD PUSH2 0xB8 SWAP2 SWAP1 PUSH2 0xC30 JUMP JUMPDEST PUSH1 0x40 MLOAD DUP1 SWAP2 SUB SWAP1 RETURN JUMPDEST PUSH2 0xDB PUSH1 0x4 DUP1 CALLDATASIZE SUB DUP2 ADD SWAP1 PUSH2 0xD6 SWAP2 SWAP1 PUSH2 0xC7C JUMP JUMPDEST PUSH2 0x221 JUMP JUMPDEST STOP JUMPDEST PUSH2 0xF7 PUSH1 0x4 DUP1 CALLDATASIZE SUB DUP2 ADD SWAP1 PUSH2 0xF2 SWAP2 SWAP1 PUSH2 0xD07 JUMP JUMPDEST PUSH2 0x39B JUMP JUMPDEST PUSH1 0x40 MLOAD PUSH2 0x106 SWAP4 SWAP3 SWAP2 SWAP1 PUSH2 0xD68 JUMP JUMPDEST PUSH1 0x40 MLOAD DUP1 SWAP2 SUB SWAP1 RETURN JUMPDEST PUSH2 0x129 PUSH1 0x4 DUP1 CALLDATASIZE SUB DUP2 ADD SWAP1 PUSH2 0x124 SWAP2 SWAP1 PUSH2 0xD07 JUMP JUMPDEST PUSH2 0x3D2 JUMP JUMPDEST STOP JUMPDEST PUSH2 0x145 PUSH1 0x4 DUP1 CALLDATASIZE SUB DUP2 ADD SWAP1 PUSH2 0x140 SWAP2 SWAP1 PUSH2 0xD07 JUMP JUMPDEST PUSH2 0x58B JUMP JUMPDEST STOP JUMPDEST PUSH2 0x161 PUSH1 0x4 DUP1 CALLDATASIZE SUB DUP2 ADD SWAP1 PUSH2 0x15C SWAP2 SWAP1 PUSH2 0xDCB JUMP JUMPDEST PUSH2 0x7C8 JUMP JUMPDEST STOP JUMPDEST PUSH2 0x16B PUSH2 0xA72 JUMP JUMPDEST PUSH1 0x40 MLOAD PUSH2 0x178 SWAP2 SWAP1 PUSH2 0xDF8 JUMP JUMPDEST PUSH1 0x40 MLOAD DUP1 SWAP2 SUB SWAP1 RETURN JUMPDEST PUSH2 0x19B PUSH1 0x4 DUP1 CALLDATASIZE SUB DUP2 ADD SWAP1 PUSH2 0x196 SWAP2 SWAP1 PUSH2 0xDCB JUMP JUMPDEST PUSH2 0xAFA JUMP JUMPDEST PUSH1 0x40 MLOAD PUSH2 0x1A9 SWAP3 SWAP2 SWAP1 PUSH2 0xE13 JUMP JUMPDEST PUSH1 0x40 MLOAD DUP1 SWAP2 SUB SWAP1 RETURN JUMPDEST PUSH2 0x1BA PUSH2 0xB2E JUMP JUMPDEST PUSH1 0x40 MLOAD PUSH2 0x1C7 SWAP2 SWAP1 PUSH2 0xEFA JUMP JUMPDEST PUSH1 0x40 MLOAD DUP1 SWAP2 SUB SWAP1 RETURN JUMPDEST PUSH2 0x1D8 PUSH2 0xBF1 JUMP JUMPDEST PUSH1 0x40 MLOAD PUSH2 0x1E5 SWAP2 SWAP1 PUSH2 0xF2B JUMP JUMPDEST PUSH1 0x40 MLOAD DUP1 SWAP2 SUB SWAP1 RETURN JUMPDEST PUSH1 0x0 DUP1 PUSH2 0x1F9 PUSH2 0xA72 JUMP JUMPDEST DUP2 SLOAD DUP2 LT PUSH2 0x20A JUMPI PUSH2 0x209 PUSH2 0xF46 JUMP JUMPDEST JUMPDEST SWAP1 PUSH1 0x0 MSTORE PUSH1 0x20 PUSH1 0x0 KECCAK256 SWAP1 PUSH1 0x2 MUL ADD PUSH1 0x0 ADD SLOAD SWAP1 POP SWAP1 JUMP JUMPDEST PUSH1 0x2 PUSH1 0x0 SWAP1 SLOAD SWAP1 PUSH2 0x100 EXP SWAP1 DIV PUSH20 0xFFFFFFFFFFFFFFFFFFFFFFFFFFFFFFFFFFFFFFFF AND PUSH20 0xFFFFFFFFFFFFFFFFFFFFFFFFFFFFFFFFFFFFFFFF AND CALLER PUSH20 0xFFFFFFFFFFFFFFFFFFFFFFFFFFFFFFFFFFFFFFFF AND EQ PUSH2 0x2B1 JUMPI PUSH1 0x40 MLOAD PUSH32 0x8C379A000000000000000000000000000000000000000000000000000000000 DUP2 MSTORE PUSH1 0x4 ADD PUSH2 0x2A8 SWAP1 PUSH2 0xFF8 JUMP JUMPDEST PUSH1 0x40 MLOAD DUP1 SWAP2 SUB SWAP1 REVERT JUMPDEST PUSH1 0x2 PUSH1 0x0 SWAP1 SLOAD SWAP1 PUSH2 0x100 EXP SWAP1 DIV PUSH20 0xFFFFFFFFFFFFFFFFFFFFFFFFFFFFFFFFFFFFFFFF AND PUSH20 0xFFFFFFFFFFFFFFFFFFFFFFFFFFFFFFFFFFFFFFFF AND CALLER PUSH20 0xFFFFFFFFFFFFFFFFFFFFFFFFFFFFFFFFFFFFFFFF AND EQ PUSH2 0x341 JUMPI PUSH1 0x40 MLOAD PUSH32 0x8C379A000000000000000000000000000000000000000000000000000000000 DUP2 MSTORE PUSH1 0x4 ADD PUSH2 0x338 SWAP1 PUSH2 0x108A JUMP JUMPDEST PUSH1 0x40 MLOAD DUP1 SWAP2 SUB SWAP1 REVERT JUMPDEST PUSH1 0x0 PUSH1 0x40 MLOAD DUP1 PUSH1 0x40 ADD PUSH1 0x40 MSTORE DUP1 DUP4 DUP2 MSTORE PUSH1 0x20 ADD PUSH1 0x0 DUP2 MSTORE POP SWAP1 DUP1 PUSH1 0x1 DUP2 SLOAD ADD DUP1 DUP3 SSTORE DUP1 SWAP2 POP POP PUSH1 0x1 SWAP1 SUB SWAP1 PUSH1 0x0 MSTORE PUSH1 0x20 PUSH1 0x0 KECCAK256 SWAP1 PUSH1 0x2 MUL ADD PUSH1 0x0 SWAP1 SWAP2 SWAP1 SWAP2 SWAP1 SWAP2 POP PUSH1 0x0 DUP3 ADD MLOAD DUP2 PUSH1 0x0 ADD SSTORE PUSH1 0x20 DUP3 ADD MLOAD DUP2 PUSH1 0x1 ADD SSTORE POP POP POP JUMP JUMPDEST PUSH1 0x1 PUSH1 0x20 MSTORE DUP1 PUSH1 0x0 MSTORE PUSH1 0x40 PUSH1 0x0 KECCAK256 PUSH1 0x0 SWAP2 POP SWAP1 POP DUP1 PUSH1 0x0 ADD SLOAD SWAP1 DUP1 PUSH1 0x1 ADD PUSH1 0x0 SWAP1 SLOAD SWAP1 PUSH2 0x100 EXP SWAP1 DIV PUSH1 0xFF AND SWAP1 DUP1 PUSH1 0x2 ADD SLOAD SWAP1 POP DUP4 JUMP JUMPDEST PUSH1 0x2 PUSH1 0x0 SWAP1 SLOAD SWAP1 PUSH2 0x100 EXP SWAP1 DIV PUSH20 0xFFFFFFFFFFFFFFFFFFFFFFFFFFFFFFFFFFFFFFFF AND PUSH20 0xFFFFFFFFFFFFFFFFFFFFFFFFFFFFFFFFFFFFFFFF AND CALLER PUSH20 0xFFFFFFFFFFFFFFFFFFFFFFFFFFFFFFFFFFFFFFFF AND EQ PUSH2 0x462 JUMPI PUSH1 0x40 MLOAD PUSH32 0x8C379A000000000000000000000000000000000000000000000000000000000 DUP2 MSTORE PUSH1 0x4 ADD PUSH2 0x459 SWAP1 PUSH2 0x111C JUMP JUMPDEST PUSH1 0x40 MLOAD DUP1 SWAP2 SUB SWAP1 REVERT JUMPDEST PUSH1 0x1 PUSH1 0x0 DUP3 PUSH20 0xFFFFFFFFFFFFFFFFFFFFFFFFFFFFFFFFFFFFFFFF AND PUSH20 0xFFFFFFFFFFFFFFFFFFFFFFFFFFFFFFFFFFFFFFFF AND DUP2 MSTORE PUSH1 0x20 ADD SWAP1 DUP2 MSTORE PUSH1 0x20 ADD PUSH1 0x0 KECCAK256 PUSH1 0x1 ADD PUSH1 0x0 SWAP1 SLOAD SWAP1 PUSH2 0x100 EXP SWAP1 DIV PUSH1 0xFF AND ISZERO PUSH2 0x4F2 JUMPI PUSH1 0x40 MLOAD PUSH32 0x8C379A000000000000000000000000000000000000000000000000000000000 DUP2 MSTORE PUSH1 0x4 ADD PUSH2 0x4E9 SWAP1 PUSH2 0x11AE JUMP JUMPDEST PUSH1 0x40 MLOAD DUP1 SWAP2 SUB SWAP1 REVERT JUMPDEST PUSH1 0x0 PUSH1 0x1 PUSH1 0x0 DUP4 PUSH20 0xFFFFFFFFFFFFFFFFFFFFFFFFFFFFFFFFFFFFFFFF AND PUSH20 0xFFFFFFFFFFFFFFFFFFFFFFFFFFFFFFFFFFFFFFFF AND DUP2 MSTORE PUSH1 0x20 ADD SWAP1 DUP2 MSTORE PUSH1 0x20 ADD PUSH1 0x0 KECCAK256 PUSH1 0x2 ADD SLOAD EQ PUSH2 0x541 JUMPI PUSH1 0x0 DUP1 REVERT JUMPDEST PUSH1 0x1 DUP1 PUSH1 0x0 DUP4 PUSH20 0xFFFFFFFFFFFFFFFFFFFFFFFFFFFFFFFFFFFFFFFF AND PUSH20 0xFFFFFFFFFFFFFFFFFFFFFFFFFFFFFFFFFFFFFFFF AND DUP2 MSTORE PUSH1 0x20 ADD SWAP1 DUP2 MSTORE PUSH1 0x20 ADD PUSH1 0x0 KECCAK256 PUSH1 0x2 ADD DUP2 SWAP1 SSTORE POP POP JUMP JUMPDEST PUSH1 0x0 PUSH20 0xFFFFFFFFFFFFFFFFFFFFFFFFFFFFFFFFFFFFFFFF AND PUSH1 0x2 PUSH1 0x0 SWAP1 SLOAD SWAP1 PUSH2 0x100 EXP SWAP1 DIV PUSH20 0xFFFFFFFFFFFFFFFFFFFFFFFFFFFFFFFFFFFFFFFF AND PUSH20 0xFFFFFFFFFFFFFFFFFFFFFFFFFFFFFFFFFFFFFFFF AND EQ PUSH2 0x61C JUMPI PUSH1 0x40 MLOAD PUSH32 0x8C379A000000000000000000000000000000000000000000000000000000000 DUP2 MSTORE PUSH1 0x4 ADD PUSH2 0x613 SWAP1 PUSH2 0x121A JUMP JUMPDEST PUSH1 0x40 MLOAD DUP1 SWAP2 SUB SWAP1 REVERT JUMPDEST DUP1 PUSH1 0x2 PUSH1 0x0 PUSH2 0x100 EXP DUP2 SLOAD DUP2 PUSH20 0xFFFFFFFFFFFFFFFFFFFFFFFFFFFFFFFFFFFFFFFF MUL NOT AND SWAP1 DUP4 PUSH20 0xFFFFFFFFFFFFFFFFFFFFFFFFFFFFFFFFFFFFFFFF AND MUL OR SWAP1 SSTORE POP PUSH1 0x0 PUSH1 0x2 PUSH1 0x0 SWAP1 SLOAD SWAP1 PUSH2 0x100 EXP SWAP1 DIV PUSH20 0xFFFFFFFFFFFFFFFFFFFFFFFFFFFFFFFFFFFFFFFF AND PUSH1 0x40 MLOAD PUSH1 0x24 ADD PUSH2 0x692 SWAP2 SWAP1 PUSH2 0xF2B JUMP JUMPDEST PUSH1 0x40 MLOAD PUSH1 0x20 DUP2 DUP4 SUB SUB DUP2 MSTORE SWAP1 PUSH1 0x40 MSTORE PUSH32 0xB18E2CBB00000000000000000000000000000000000000000000000000000000 PUSH28 0xFFFFFFFFFFFFFFFFFFFFFFFFFFFFFFFFFFFFFFFFFFFFFFFFFFFFFFFF NOT AND PUSH1 0x20 DUP3 ADD DUP1 MLOAD PUSH28 0xFFFFFFFFFFFFFFFFFFFFFFFFFFFFFFFFFFFFFFFFFFFFFFFFFFFFFFFF DUP4 DUP2 DUP4 AND OR DUP4 MSTORE POP POP POP POP SWAP1 POP PUSH1 0x0 CALLER PUSH20 0xFFFFFFFFFFFFFFFFFFFFFFFFFFFFFFFFFFFFFFFF AND PUSH1 0x0 GAS SWAP1 DUP5 PUSH1 0x40 MLOAD PUSH2 0x73C SWAP2 SWAP1 PUSH2 0x12AB JUMP JUMPDEST PUSH1 0x0 PUSH1 0x40 MLOAD DUP1 DUP4 SUB DUP2 DUP6 DUP9 DUP9 CALL SWAP4 POP POP POP POP RETURNDATASIZE DUP1 PUSH1 0x0 DUP2 EQ PUSH2 0x77A JUMPI PUSH1 0x40 MLOAD SWAP2 POP PUSH1 0x1F NOT PUSH1 0x3F RETURNDATASIZE ADD AND DUP3 ADD PUSH1 0x40 MSTORE RETURNDATASIZE DUP3 MSTORE RETURNDATASIZE PUSH1 0x0 PUSH1 0x20 DUP5 ADD RETURNDATACOPY PUSH2 0x77F JUMP JUMPDEST PUSH1 0x60 SWAP2 POP JUMPDEST POP POP SWAP1 POP DUP1 PUSH2 0x7C3 JUMPI PUSH1 0x40 MLOAD PUSH32 0x8C379A000000000000000000000000000000000000000000000000000000000 DUP2 MSTORE PUSH1 0x4 ADD PUSH2 0x7BA SWAP1 PUSH2 0x130E JUMP JUMPDEST PUSH1 0x40 MLOAD DUP1 SWAP2 SUB SWAP1 REVERT JUMPDEST POP POP POP JUMP JUMPDEST PUSH1 0x0 PUSH1 0x1 PUSH1 0x0 CALLER PUSH20 0xFFFFFFFFFFFFFFFFFFFFFFFFFFFFFFFFFFFFFFFF AND PUSH20 0xFFFFFFFFFFFFFFFFFFFFFFFFFFFFFFFFFFFFFFFF AND DUP2 MSTORE PUSH1 0x20 ADD SWAP1 DUP2 MSTORE PUSH1 0x20 ADD PUSH1 0x0 KECCAK256 SWAP1 POP PUSH1 0x0 DUP2 PUSH1 0x2 ADD SLOAD SUB PUSH2 0x852 JUMPI PUSH1 0x40 MLOAD PUSH32 0x8C379A000000000000000000000000000000000000000000000000000000000 DUP2 MSTORE PUSH1 0x4 ADD PUSH2 0x849 SWAP1 PUSH2 0x137A JUMP JUMPDEST PUSH1 0x40 MLOAD DUP1 SWAP2 SUB SWAP1 REVERT JUMPDEST DUP1 PUSH1 0x1 ADD PUSH1 0x0 SWAP1 SLOAD SWAP1 PUSH2 0x100 EXP SWAP1 DIV PUSH1 0xFF AND ISZERO PUSH2 0x8A4 JUMPI PUSH1 0x40 MLOAD PUSH32 0x8C379A000000000000000000000000000000000000000000000000000000000 DUP2 MSTORE PUSH1 0x4 ADD PUSH2 0x89B SWAP1 PUSH2 0x13E6 JUMP JUMPDEST PUSH1 0x40 MLOAD DUP1 SWAP2 SUB SWAP1 REVERT JUMPDEST PUSH1 0x1 DUP2 PUSH1 0x1 ADD PUSH1 0x0 PUSH2 0x100 EXP DUP2 SLOAD DUP2 PUSH1 0xFF MUL NOT AND SWAP1 DUP4 ISZERO ISZERO MUL OR SWAP1 SSTORE POP DUP2 DUP2 PUSH1 0x0 ADD DUP2 SWAP1 SSTORE POP DUP1 PUSH1 0x2 ADD SLOAD PUSH1 0x0 DUP4 DUP2 SLOAD DUP2 LT PUSH2 0x8E3 JUMPI PUSH2 0x8E2 PUSH2 0xF46 JUMP JUMPDEST JUMPDEST SWAP1 PUSH1 0x0 MSTORE PUSH1 0x20 PUSH1 0x0 KECCAK256 SWAP1 PUSH1 0x2 MUL ADD PUSH1 0x1 ADD SLOAD PUSH2 0x8FF SWAP2 SWAP1 PUSH2 0x1435 JUMP JUMPDEST PUSH1 0x0 DUP4 DUP2 SLOAD DUP2 LT PUSH2 0x913 JUMPI PUSH2 0x912 PUSH2 0xF46 JUMP JUMPDEST JUMPDEST SWAP1 PUSH1 0x0 MSTORE PUSH1 0x20 PUSH1 0x0 KECCAK256 SWAP1 PUSH1 0x2 MUL ADD PUSH1 0x1 ADD DUP2 SWAP1 SSTORE POP PUSH1 0x0 DUP3 PUSH1 0x40 MLOAD PUSH1 0x24 ADD PUSH2 0x93B SWAP2 SWAP1 PUSH2 0xDF8 JUMP JUMPDEST PUSH1 0x40 MLOAD PUSH1 0x20 DUP2 DUP4 SUB SUB DUP2 MSTORE SWAP1 PUSH1 0x40 MSTORE PUSH32 0xB18E2CBB00000000000000000000000000000000000000000000000000000000 PUSH28 0xFFFFFFFFFFFFFFFFFFFFFFFFFFFFFFFFFFFFFFFFFFFFFFFFFFFFFFFF NOT AND PUSH1 0x20 DUP3 ADD DUP1 MLOAD PUSH28 0xFFFFFFFFFFFFFFFFFFFFFFFFFFFFFFFFFFFFFFFFFFFFFFFFFFFFFFFF DUP4 DUP2 DUP4 AND OR DUP4 MSTORE POP POP POP POP SWAP1 POP PUSH1 0x0 CALLER PUSH20 0xFFFFFFFFFFFFFFFFFFFFFFFFFFFFFFFFFFFFFFFF AND PUSH1 0x0 GAS SWAP1 DUP5 PUSH1 0x40 MLOAD PUSH2 0x9E5 SWAP2 SWAP1 PUSH2 0x12AB JUMP JUMPDEST PUSH1 0x0 PUSH1 0x40 MLOAD DUP1 DUP4 SUB DUP2 DUP6 DUP9 DUP9 CALL SWAP4 POP POP POP POP RETURNDATASIZE DUP1 PUSH1 0x0 DUP2 EQ PUSH2 0xA23 JUMPI PUSH1 0x40 MLOAD SWAP2 POP PUSH1 0x1F NOT PUSH1 0x3F RETURNDATASIZE ADD AND DUP3 ADD PUSH1 0x40 MSTORE RETURNDATASIZE DUP3 MSTORE RETURNDATASIZE PUSH1 0x0 PUSH1 0x20 DUP5 ADD RETURNDATACOPY PUSH2 0xA28 JUMP JUMPDEST PUSH1 0x60 SWAP2 POP JUMPDEST POP POP SWAP1 POP DUP1 PUSH2 0xA6C JUMPI PUSH1 0x40 MLOAD PUSH32 0x8C379A000000000000000000000000000000000000000000000000000000000 DUP2 MSTORE PUSH1 0x4 ADD PUSH2 0xA63 SWAP1 PUSH2 0x130E JUMP JUMPDEST PUSH1 0x40 MLOAD DUP1 SWAP2 SUB SWAP1 REVERT JUMPDEST POP POP POP POP JUMP JUMPDEST PUSH1 0x0 DUP1 PUSH1 0x0 SWAP1 POP PUSH1 0x0 JUMPDEST PUSH1 0x0 DUP1 SLOAD SWAP1 POP DUP2 LT ISZERO PUSH2 0xAF5 JUMPI DUP2 PUSH1 0x0 DUP3 DUP2 SLOAD DUP2 LT PUSH2 0xA9E JUMPI PUSH2 0xA9D PUSH2 0xF46 JUMP JUMPDEST JUMPDEST SWAP1 PUSH1 0x0 MSTORE PUSH1 0x20 PUSH1 0x0 KECCAK256 SWAP1 PUSH1 0x2 MUL ADD PUSH1 0x1 ADD SLOAD GT ISZERO PUSH2 0xAE2 JUMPI PUSH1 0x0 DUP2 DUP2 SLOAD DUP2 LT PUSH2 0xACA JUMPI PUSH2 0xAC9 PUSH2 0xF46 JUMP JUMPDEST JUMPDEST SWAP1 PUSH1 0x0 MSTORE PUSH1 0x20 PUSH1 0x0 KECCAK256 SWAP1 PUSH1 0x2 MUL ADD PUSH1 0x1 ADD SLOAD SWAP2 POP DUP1 SWAP3 POP JUMPDEST DUP1 DUP1 PUSH2 0xAED SWAP1 PUSH2 0x1469 JUMP JUMPDEST SWAP2 POP POP PUSH2 0xA7C JUMP JUMPDEST POP POP SWAP1 JUMP JUMPDEST PUSH1 0x0 DUP2 DUP2 SLOAD DUP2 LT PUSH2 0xB0A JUMPI PUSH1 0x0 DUP1 REVERT JUMPDEST SWAP1 PUSH1 0x0 MSTORE PUSH1 0x20 PUSH1 0x0 KECCAK256 SWAP1 PUSH1 0x2 MUL ADD PUSH1 0x0 SWAP2 POP SWAP1 POP DUP1 PUSH1 0x0 ADD SLOAD SWAP1 DUP1 PUSH1 0x1 ADD SLOAD SWAP1 POP DUP3 JUMP JUMPDEST PUSH1 0x60 PUSH1 0x0 DUP1 DUP1 SLOAD SWAP1 POP PUSH8 0xFFFFFFFFFFFFFFFF DUP2 GT ISZERO PUSH2 0xB50 JUMPI PUSH2 0xB4F PUSH2 0x14B1 JUMP JUMPDEST JUMPDEST PUSH1 0x40 MLOAD SWAP1 DUP1 DUP3 MSTORE DUP1 PUSH1 0x20 MUL PUSH1 0x20 ADD DUP3 ADD PUSH1 0x40 MSTORE DUP1 ISZERO PUSH2 0xB7E JUMPI DUP2 PUSH1 0x20 ADD PUSH1 0x20 DUP3 MUL DUP1 CALLDATASIZE DUP4 CALLDATACOPY DUP1 DUP3 ADD SWAP2 POP POP SWAP1 POP JUMPDEST POP SWAP1 POP PUSH1 0x0 JUMPDEST PUSH1 0x0 DUP1 SLOAD SWAP1 POP DUP2 LT ISZERO PUSH2 0xBE9 JUMPI PUSH1 0x0 DUP2 DUP2 SLOAD DUP2 LT PUSH2 0xBA5 JUMPI PUSH2 0xBA4 PUSH2 0xF46 JUMP JUMPDEST JUMPDEST SWAP1 PUSH1 0x0 MSTORE PUSH1 0x20 PUSH1 0x0 KECCAK256 SWAP1 PUSH1 0x2 MUL ADD PUSH1 0x0 ADD SLOAD DUP3 DUP3 DUP2 MLOAD DUP2 LT PUSH2 0xBCA JUMPI PUSH2 0xBC9 PUSH2 0xF46 JUMP JUMPDEST JUMPDEST PUSH1 0x20 MUL PUSH1 0x20 ADD ADD DUP2 DUP2 MSTORE POP POP DUP1 DUP1 PUSH2 0xBE1 SWAP1 PUSH2 0x1469 JUMP JUMPDEST SWAP2 POP POP PUSH2 0xB84 JUMP JUMPDEST POP DUP1 SWAP2 POP POP SWAP1 JUMP JUMPDEST PUSH1 0x2 PUSH1 0x0 SWAP1 SLOAD SWAP1 PUSH2 0x100 EXP SWAP1 DIV PUSH20 0xFFFFFFFFFFFFFFFFFFFFFFFFFFFFFFFFFFFFFFFF AND DUP2 JUMP JUMPDEST PUSH1 0x0 DUP2 SWAP1 POP SWAP2 SWAP1 POP JUMP JUMPDEST PUSH2 0xC2A DUP2 PUSH2 0xC17 JUMP JUMPDEST DUP3 MSTORE POP POP JUMP JUMPDEST PUSH1 0x0 PUSH1 0x20 DUP3 ADD SWAP1 POP PUSH2 0xC45 PUSH1 0x0 DUP4 ADD DUP5 PUSH2 0xC21 JUMP JUMPDEST SWAP3 SWAP2 POP POP JUMP JUMPDEST PUSH1 0x0 DUP1 REVERT JUMPDEST PUSH2 0xC59 DUP2 PUSH2 0xC17 JUMP JUMPDEST DUP2 EQ PUSH2 0xC64 JUMPI PUSH1 0x0 DUP1 REVERT JUMPDEST POP JUMP JUMPDEST PUSH1 0x0 DUP2 CALLDATALOAD SWAP1 POP PUSH2 0xC76 DUP2 PUSH2 0xC50 JUMP JUMPDEST SWAP3 SWAP2 POP POP JUMP JUMPDEST PUSH1 0x0 PUSH1 0x20 DUP3 DUP5 SUB SLT ISZERO PUSH2 0xC92 JUMPI PUSH2 0xC91 PUSH2 0xC4B JUMP JUMPDEST JUMPDEST PUSH1 0x0 PUSH2 0xCA0 DUP5 DUP3 DUP6 ADD PUSH2 0xC67 JUMP JUMPDEST SWAP2 POP POP SWAP3 SWAP2 POP POP JUMP JUMPDEST PUSH1 0x0 PUSH20 0xFFFFFFFFFFFFFFFFFFFFFFFFFFFFFFFFFFFFFFFF DUP3 AND SWAP1 POP SWAP2 SWAP1 POP JUMP JUMPDEST PUSH1 0x0 PUSH2 0xCD4 DUP3 PUSH2 0xCA9 JUMP JUMPDEST SWAP1 POP SWAP2 SWAP1 POP JUMP JUMPDEST PUSH2 0xCE4 DUP2 PUSH2 0xCC9 JUMP JUMPDEST DUP2 EQ PUSH2 0xCEF JUMPI PUSH1 0x0 DUP1 REVERT JUMPDEST POP JUMP JUMPDEST PUSH1 0x0 DUP2 CALLDATALOAD SWAP1 POP PUSH2 0xD01 DUP2 PUSH2 0xCDB JUMP JUMPDEST SWAP3 SWAP2 POP POP JUMP JUMPDEST PUSH1 0x0 PUSH1 0x20 DUP3 DUP5 SUB SLT ISZERO PUSH2 0xD1D JUMPI PUSH2 0xD1C PUSH2 0xC4B JUMP JUMPDEST JUMPDEST PUSH1 0x0 PUSH2 0xD2B DUP5 DUP3 DUP6 ADD PUSH2 0xCF2 JUMP JUMPDEST SWAP2 POP POP SWAP3 SWAP2 POP POP JUMP JUMPDEST PUSH1 0x0 DUP2 SWAP1 POP SWAP2 SWAP1 POP JUMP JUMPDEST PUSH2 0xD47 DUP2 PUSH2 0xD34 JUMP JUMPDEST DUP3 MSTORE POP POP JUMP JUMPDEST PUSH1 0x0 DUP2 ISZERO ISZERO SWAP1 POP SWAP2 SWAP1 POP JUMP JUMPDEST PUSH2 0xD62 DUP2 PUSH2 0xD4D JUMP JUMPDEST DUP3 MSTORE POP POP JUMP JUMPDEST PUSH1 0x0 PUSH1 0x60 DUP3 ADD SWAP1 POP PUSH2 0xD7D PUSH1 0x0 DUP4 ADD DUP7 PUSH2 0xD3E JUMP JUMPDEST PUSH2 0xD8A PUSH1 0x20 DUP4 ADD DUP6 PUSH2 0xD59 JUMP JUMPDEST PUSH2 0xD97 PUSH1 0x40 DUP4 ADD DUP5 PUSH2 0xD3E JUMP JUMPDEST SWAP5 SWAP4 POP POP POP POP JUMP JUMPDEST PUSH2 0xDA8 DUP2 PUSH2 0xD34 JUMP JUMPDEST DUP2 EQ PUSH2 0xDB3 JUMPI PUSH1 0x0 DUP1 REVERT JUMPDEST POP JUMP JUMPDEST PUSH1 0x0 DUP2 CALLDATALOAD SWAP1 POP PUSH2 0xDC5 DUP2 PUSH2 0xD9F JUMP JUMPDEST SWAP3 SWAP2 POP POP JUMP JUMPDEST PUSH1 0x0 PUSH1 0x20 DUP3 DUP5 SUB SLT ISZERO PUSH2 0xDE1 JUMPI PUSH2 0xDE0 PUSH2 0xC4B JUMP JUMPDEST JUMPDEST PUSH1 0x0 PUSH2 0xDEF DUP5 DUP3 DUP6 ADD PUSH2 0xDB6 JUMP JUMPDEST SWAP2 POP POP SWAP3 SWAP2 POP POP JUMP JUMPDEST PUSH1 0x0 PUSH1 0x20 DUP3 ADD SWAP1 POP PUSH2 0xE0D PUSH1 0x0 DUP4 ADD DUP5 PUSH2 0xD3E JUMP JUMPDEST SWAP3 SWAP2 POP POP JUMP JUMPDEST PUSH1 0x0 PUSH1 0x40 DUP3 ADD SWAP1 POP PUSH2 0xE28 PUSH1 0x0 DUP4 ADD DUP6 PUSH2 0xC21 JUMP JUMPDEST PUSH2 0xE35 PUSH1 0x20 DUP4 ADD DUP5 PUSH2 0xD3E JUMP JUMPDEST SWAP4 SWAP3 POP POP POP JUMP JUMPDEST PUSH1 0x0 DUP2 MLOAD SWAP1 POP SWAP2 SWAP1 POP JUMP JUMPDEST PUSH1 0x0 DUP3 DUP3 MSTORE PUSH1 0x20 DUP3 ADD SWAP1 POP SWAP3 SWAP2 POP POP JUMP JUMPDEST PUSH1 0x0 DUP2 SWAP1 POP PUSH1 0x20 DUP3 ADD SWAP1 POP SWAP2 SWAP1 POP JUMP JUMPDEST PUSH2 0xE71 DUP2 PUSH2 0xC17 JUMP JUMPDEST DUP3 MSTORE POP POP JUMP JUMPDEST PUSH1 0x0 PUSH2 0xE83 DUP4 DUP4 PUSH2 0xE68 JUMP JUMPDEST PUSH1 0x20 DUP4 ADD SWAP1 POP SWAP3 SWAP2 POP POP JUMP JUMPDEST PUSH1 0x0 PUSH1 0x20 DUP3 ADD SWAP1 POP SWAP2 SWAP1 POP JUMP JUMPDEST PUSH1 0x0 PUSH2 0xEA7 DUP3 PUSH2 0xE3C JUMP JUMPDEST PUSH2 0xEB1 DUP2 DUP6 PUSH2 0xE47 JUMP JUMPDEST SWAP4 POP PUSH2 0xEBC DUP4 PUSH2 0xE58 JUMP JUMPDEST DUP1 PUSH1 0x0 JUMPDEST DUP4 DUP2 LT ISZERO PUSH2 0xEED JUMPI DUP2 MLOAD PUSH2 0xED4 DUP9 DUP3 PUSH2 0xE77 JUMP JUMPDEST SWAP8 POP PUSH2 0xEDF DUP4 PUSH2 0xE8F JUMP JUMPDEST SWAP3 POP POP PUSH1 0x1 DUP2 ADD SWAP1 POP PUSH2 0xEC0 JUMP JUMPDEST POP DUP6 SWAP4 POP POP POP POP SWAP3 SWAP2 POP POP JUMP JUMPDEST PUSH1 0x0 PUSH1 0x20 DUP3 ADD SWAP1 POP DUP2 DUP2 SUB PUSH1 0x0 DUP4 ADD MSTORE PUSH2 0xF14 DUP2 DUP5 PUSH2 0xE9C JUMP JUMPDEST SWAP1 POP SWAP3 SWAP2 POP POP JUMP JUMPDEST PUSH2 0xF25 DUP2 PUSH2 0xCC9 JUMP JUMPDEST DUP3 MSTORE POP POP JUMP JUMPDEST PUSH1 0x0 PUSH1 0x20 DUP3 ADD SWAP1 POP PUSH2 0xF40 PUSH1 0x0 DUP4 ADD DUP5 PUSH2 0xF1C JUMP JUMPDEST SWAP3 SWAP2 POP POP JUMP JUMPDEST PUSH32 0x4E487B7100000000000000000000000000000000000000000000000000000000 PUSH1 0x0 MSTORE PUSH1 0x32 PUSH1 0x4 MSTORE PUSH1 0x24 PUSH1 0x0 REVERT JUMPDEST PUSH1 0x0 DUP3 DUP3 MSTORE PUSH1 0x20 DUP3 ADD SWAP1 POP SWAP3 SWAP2 POP POP JUMP JUMPDEST PUSH32 0x446F61722061646D696E756C20706F6174652066616365206163656173746120 PUSH1 0x0 DUP3 ADD MSTORE PUSH32 0x6F70657261746965000000000000000000000000000000000000000000000000 PUSH1 0x20 DUP3 ADD MSTORE POP JUMP JUMPDEST PUSH1 0x0 PUSH2 0xFE2 PUSH1 0x28 DUP4 PUSH2 0xF75 JUMP JUMPDEST SWAP2 POP PUSH2 0xFED DUP3 PUSH2 0xF86 JUMP JUMPDEST PUSH1 0x40 DUP3 ADD SWAP1 POP SWAP2 SWAP1 POP JUMP JUMPDEST PUSH1 0x0 PUSH1 0x20 DUP3 ADD SWAP1 POP DUP2 DUP2 SUB PUSH1 0x0 DUP4 ADD MSTORE PUSH2 0x1011 DUP2 PUSH2 0xFD5 JUMP JUMPDEST SWAP1 POP SWAP2 SWAP1 POP JUMP JUMPDEST PUSH32 0x446F61722061646D696E756C20706F617465206164617567612063616E646964 PUSH1 0x0 DUP3 ADD MSTORE PUSH32 0x6174690000000000000000000000000000000000000000000000000000000000 PUSH1 0x20 DUP3 ADD MSTORE POP JUMP JUMPDEST PUSH1 0x0 PUSH2 0x1074 PUSH1 0x23 DUP4 PUSH2 0xF75 JUMP JUMPDEST SWAP2 POP PUSH2 0x107F DUP3 PUSH2 0x1018 JUMP JUMPDEST PUSH1 0x40 DUP3 ADD SWAP1 POP SWAP2 SWAP1 POP JUMP JUMPDEST PUSH1 0x0 PUSH1 0x20 DUP3 ADD SWAP1 POP DUP2 DUP2 SUB PUSH1 0x0 DUP4 ADD MSTORE PUSH2 0x10A3 DUP2 PUSH2 0x1067 JUMP JUMPDEST SWAP1 POP SWAP2 SWAP1 POP JUMP JUMPDEST PUSH32 0x446F61722061646D696E756C20706F617465206461206163636573206C612076 PUSH1 0x0 DUP3 ADD MSTORE PUSH32 0x6F74000000000000000000000000000000000000000000000000000000000000 PUSH1 0x20 DUP3 ADD MSTORE POP JUMP JUMPDEST PUSH1 0x0 PUSH2 0x1106 PUSH1 0x22 DUP4 PUSH2 0xF75 JUMP JUMPDEST SWAP2 POP PUSH2 0x1111 DUP3 PUSH2 0x10AA JUMP JUMPDEST PUSH1 0x40 DUP3 ADD SWAP1 POP SWAP2 SWAP1 POP JUMP JUMPDEST PUSH1 0x0 PUSH1 0x20 DUP3 ADD SWAP1 POP DUP2 DUP2 SUB PUSH1 0x0 DUP4 ADD MSTORE PUSH2 0x1135 DUP2 PUSH2 0x10F9 JUMP JUMPDEST SWAP1 POP SWAP2 SWAP1 POP JUMP JUMPDEST PUSH32 0x566F74616E74756C2064656A6120612020696E72656769737472617420756E20 PUSH1 0x0 DUP3 ADD MSTORE PUSH32 0x766F740000000000000000000000000000000000000000000000000000000000 PUSH1 0x20 DUP3 ADD MSTORE POP JUMP JUMPDEST PUSH1 0x0 PUSH2 0x1198 PUSH1 0x23 DUP4 PUSH2 0xF75 JUMP JUMPDEST SWAP2 POP PUSH2 0x11A3 DUP3 PUSH2 0x113C JUMP JUMPDEST PUSH1 0x40 DUP3 ADD SWAP1 POP SWAP2 SWAP1 POP JUMP JUMPDEST PUSH1 0x0 PUSH1 0x20 DUP3 ADD SWAP1 POP DUP2 DUP2 SUB PUSH1 0x0 DUP4 ADD MSTORE PUSH2 0x11C7 DUP2 PUSH2 0x118B JUMP JUMPDEST SWAP1 POP SWAP2 SWAP1 POP JUMP JUMPDEST PUSH32 0x41646D696E756C206120666F73742064656A6120736574617400000000000000 PUSH1 0x0 DUP3 ADD MSTORE POP JUMP JUMPDEST PUSH1 0x0 PUSH2 0x1204 PUSH1 0x19 DUP4 PUSH2 0xF75 JUMP JUMPDEST SWAP2 POP PUSH2 0x120F DUP3 PUSH2 0x11CE JUMP JUMPDEST PUSH1 0x20 DUP3 ADD SWAP1 POP SWAP2 SWAP1 POP JUMP JUMPDEST PUSH1 0x0 PUSH1 0x20 DUP3 ADD SWAP1 POP DUP2 DUP2 SUB PUSH1 0x0 DUP4 ADD MSTORE PUSH2 0x1233 DUP2 PUSH2 0x11F7 JUMP JUMPDEST SWAP1 POP SWAP2 SWAP1 POP JUMP JUMPDEST PUSH1 0x0 DUP2 MLOAD SWAP1 POP SWAP2 SWAP1 POP JUMP JUMPDEST PUSH1 0x0 DUP2 SWAP1 POP SWAP3 SWAP2 POP POP JUMP JUMPDEST PUSH1 0x0 JUMPDEST DUP4 DUP2 LT ISZERO PUSH2 0x126E JUMPI DUP1 DUP3 ADD MLOAD DUP2 DUP5 ADD MSTORE PUSH1 0x20 DUP2 ADD SWAP1 POP PUSH2 0x1253 JUMP JUMPDEST PUSH1 0x0 DUP5 DUP5 ADD MSTORE POP POP POP POP JUMP JUMPDEST PUSH1 0x0 PUSH2 0x1285 DUP3 PUSH2 0x123A JUMP JUMPDEST PUSH2 0x128F DUP2 DUP6 PUSH2 0x1245 JUMP JUMPDEST SWAP4 POP PUSH2 0x129F DUP2 DUP6 PUSH1 0x20 DUP7 ADD PUSH2 0x1250 JUMP JUMPDEST DUP1 DUP5 ADD SWAP2 POP POP SWAP3 SWAP2 POP POP JUMP JUMPDEST PUSH1 0x0 PUSH2 0x12B7 DUP3 DUP5 PUSH2 0x127A JUMP JUMPDEST SWAP2 POP DUP2 SWAP1 POP SWAP3 SWAP2 POP POP JUMP JUMPDEST PUSH32 0x5472616E73616374696F6E206661696C65640000000000000000000000000000 PUSH1 0x0 DUP3 ADD MSTORE POP JUMP JUMPDEST PUSH1 0x0 PUSH2 0x12F8 PUSH1 0x12 DUP4 PUSH2 0xF75 JUMP JUMPDEST SWAP2 POP PUSH2 0x1303 DUP3 PUSH2 0x12C2 JUMP JUMPDEST PUSH1 0x20 DUP3 ADD SWAP1 POP SWAP2 SWAP1 POP JUMP JUMPDEST PUSH1 0x0 PUSH1 0x20 DUP3 ADD SWAP1 POP DUP2 DUP2 SUB PUSH1 0x0 DUP4 ADD MSTORE PUSH2 0x1327 DUP2 PUSH2 0x12EB JUMP JUMPDEST SWAP1 POP SWAP2 SWAP1 POP JUMP JUMPDEST PUSH32 0x4E752061726520647265707420646520766F7421000000000000000000000000 PUSH1 0x0 DUP3 ADD MSTORE POP JUMP JUMPDEST PUSH1 0x0 PUSH2 0x1364 PUSH1 0x14 DUP4 PUSH2 0xF75 JUMP JUMPDEST SWAP2 POP PUSH2 0x136F DUP3 PUSH2 0x132E JUMP JUMPDEST PUSH1 0x20 DUP3 ADD SWAP1 POP SWAP2 SWAP1 POP JUMP JUMPDEST PUSH1 0x0 PUSH1 0x20 DUP3 ADD SWAP1 POP DUP2 DUP2 SUB PUSH1 0x0 DUP4 ADD MSTORE PUSH2 0x1393 DUP2 PUSH2 0x1357 JUMP JUMPDEST SWAP1 POP SWAP2 SWAP1 POP JUMP JUMPDEST PUSH32 0x44656A61206120766F7461740000000000000000000000000000000000000000 PUSH1 0x0 DUP3 ADD MSTORE POP JUMP JUMPDEST PUSH1 0x0 PUSH2 0x13D0 PUSH1 0xC DUP4 PUSH2 0xF75 JUMP JUMPDEST SWAP2 POP PUSH2 0x13DB DUP3 PUSH2 0x139A JUMP JUMPDEST PUSH1 0x20 DUP3 ADD SWAP1 POP SWAP2 SWAP1 POP JUMP JUMPDEST PUSH1 0x0 PUSH1 0x20 DUP3 ADD SWAP1 POP DUP2 DUP2 SUB PUSH1 0x0 DUP4 ADD MSTORE PUSH2 0x13FF DUP2 PUSH2 0x13C3 JUMP JUMPDEST SWAP1 POP SWAP2 SWAP1 POP JUMP JUMPDEST PUSH32 0x4E487B7100000000000000000000000000000000000000000000000000000000 PUSH1 0x0 MSTORE PUSH1 0x11 PUSH1 0x4 MSTORE PUSH1 0x24 PUSH1 0x0 REVERT JUMPDEST PUSH1 0x0 PUSH2 0x1440 DUP3 PUSH2 0xD34 JUMP JUMPDEST SWAP2 POP PUSH2 0x144B DUP4 PUSH2 0xD34 JUMP JUMPDEST SWAP3 POP DUP3 DUP3 ADD SWAP1 POP DUP1 DUP3 GT ISZERO PUSH2 0x1463 JUMPI PUSH2 0x1462 PUSH2 0x1406 JUMP JUMPDEST JUMPDEST SWAP3 SWAP2 POP POP JUMP JUMPDEST PUSH1 0x0 PUSH2 0x1474 DUP3 PUSH2 0xD34 JUMP JUMPDEST SWAP2 POP PUSH32 0xFFFFFFFFFFFFFFFFFFFFFFFFFFFFFFFFFFFFFFFFFFFFFFFFFFFFFFFFFFFFFFFF DUP3 SUB PUSH2 0x14A6 JUMPI PUSH2 0x14A5 PUSH2 0x1406 JUMP JUMPDEST JUMPDEST PUSH1 0x1 DUP3 ADD SWAP1 POP SWAP2 SWAP1 POP JUMP JUMPDEST PUSH32 0x4E487B7100000000000000000000000000000000000000000000000000000000 PUSH1 0x0 MSTORE PUSH1 0x41 PUSH1 0x4 MSTORE PUSH1 0x24 PUSH1 0x0 REVERT INVALID LOG2 PUSH5 0x6970667358 0x22 SLT KECCAK256 DUP5 SWAP15 PUSH5 0x597D39846F 0xA8 PUSH6 0x2D02B51483D8 PUSH20 0xC5E3535F02AB87022456419A72BF7164736F6C63 NUMBER STOP ADDMOD SLT STOP CALLER "
				},
				"gasEstimates": {
					"creation": {
						"codeDepositCost": "1079600",
						"executionCost": "1120",
						"totalCost": "1080720"
					},
					"external": {
						"addCandidate(bytes32)": "56305",
						"admin()": "2602",
						"castigatorAlegeri()": "infinite",
						"dreptVot(address)": "29373",
						"getPropuneri()": "infinite",
						"numeleCastigatorului()": "infinite",
						"propuneri(uint256)": "infinite",
						"setAdmin(address)": "infinite",
						"vot(uint256)": "infinite",
						"votanti(address)": "infinite"
					}
				},
				"methodIdentifiers": {
					"addCandidate(bytes32)": "230d6ed8",
					"admin()": "f851a440",
					"castigatorAlegeri()": "e6f4a7c8",
					"dreptVot(address)": "545f5357",
					"getPropuneri()": "f211663a",
					"numeleCastigatorului()": "0e1514b2",
					"propuneri(uint256)": "f1c78b49",
					"setAdmin(address)": "704b6c02",
					"vot(uint256)": "b18e2cbb",
					"votanti(address)": "3b2f6065"
				}
			},
			"storageLayout": {
				"storage": [
					{
						"astId": 17,
						"contract": "voting.sol:BuletinVot",
						"label": "propuneri",
						"offset": 0,
						"slot": "0",
						"type": "t_array(t_struct(PropunereVot)13_storage)dyn_storage"
					},
					{
						"astId": 22,
						"contract": "voting.sol:BuletinVot",
						"label": "votanti",
						"offset": 0,
						"slot": "1",
						"type": "t_mapping(t_address,t_struct(Votant)8_storage)"
					},
					{
						"astId": 24,
						"contract": "voting.sol:BuletinVot",
						"label": "admin",
						"offset": 0,
						"slot": "2",
						"type": "t_address"
					}
				],
				"types": {
					"t_address": {
						"encoding": "inplace",
						"label": "address",
						"numberOfBytes": "20"
					},
					"t_array(t_struct(PropunereVot)13_storage)dyn_storage": {
						"base": "t_struct(PropunereVot)13_storage",
						"encoding": "dynamic_array",
						"label": "struct BuletinVot.PropunereVot[]",
						"numberOfBytes": "32"
					},
					"t_bool": {
						"encoding": "inplace",
						"label": "bool",
						"numberOfBytes": "1"
					},
					"t_bytes32": {
						"encoding": "inplace",
						"label": "bytes32",
						"numberOfBytes": "32"
					},
					"t_mapping(t_address,t_struct(Votant)8_storage)": {
						"encoding": "mapping",
						"key": "t_address",
						"label": "mapping(address => struct BuletinVot.Votant)",
						"numberOfBytes": "32",
						"value": "t_struct(Votant)8_storage"
					},
					"t_struct(PropunereVot)13_storage": {
						"encoding": "inplace",
						"label": "struct BuletinVot.PropunereVot",
						"members": [
							{
								"astId": 10,
								"contract": "voting.sol:BuletinVot",
								"label": "nume",
								"offset": 0,
								"slot": "0",
								"type": "t_bytes32"
							},
							{
								"astId": 12,
								"contract": "voting.sol:BuletinVot",
								"label": "numarVoturi",
								"offset": 0,
								"slot": "1",
								"type": "t_uint256"
							}
						],
						"numberOfBytes": "64"
					},
					"t_struct(Votant)8_storage": {
						"encoding": "inplace",
						"label": "struct BuletinVot.Votant",
						"members": [
							{
								"astId": 3,
								"contract": "voting.sol:BuletinVot",
								"label": "vot",
								"offset": 0,
								"slot": "0",
								"type": "t_uint256"
							},
							{
								"astId": 5,
								"contract": "voting.sol:BuletinVot",
								"label": "votare",
								"offset": 0,
								"slot": "1",
								"type": "t_bool"
							},
							{
								"astId": 7,
								"contract": "voting.sol:BuletinVot",
								"label": "urmarireVot",
								"offset": 0,
								"slot": "2",
								"type": "t_uint256"
							}
						],
						"numberOfBytes": "96"
					},
					"t_uint256": {
						"encoding": "inplace",
						"label": "uint256",
						"numberOfBytes": "32"
					}
				}
			},
			"userdoc": {
				"kind": "user",
				"methods": {},
				"version": 1
			}
		}
	}
}